:100000000C942A000C9434000C9434000C943400AA
:100010000C9434000C9434000C9434000C94340090
:100020000C9434000C9434000C9434000C94340080
:100030000C9434000C9434000C9434000C94340070
:100040000C9434000C9434000C9434000C94340060
:100050000C94340011241FBECFE5D4E0DEBFCDBF29
:100060000E94AD000C94D7010C94000085BB9698BB
:10007000949A84E18A95F1F7949880EA8A95F1F749
:10008000089597982FE78FE492E1215080409040A7
:10009000E1F700C00000979A2FEF86E791E021502A
:1000A00080409040E1F700C0000080E30E943600ED
:1000B0008BE291E00197F1F700C0000080E30E941D
:1000C000360094E99A95F1F78CE00E9436008BE2B5
:1000D00091E00197F1F700C0000081E00E94360036
:1000E0008FE295E70197F1F700C0000086E00E94DB
:1000F000360087ED90E00197F1F700C00000089509
:1001000085BB969A949A84E18A95F1F7949808951C
:100110009698959A949A9F99FECF08951F93CF939E
:10012000DF93EB0180680E94360087EB9BE001972C
:10013000F1F700C0000010E0FE01E10FF11D808129
:10014000882339F00E94800098E79A95F1F71F5FA5
:10015000F3CFDF91CF911F9108952FEB84ED91E0C4
:10016000215080409040E1F700C000008FEF8ABB33
:100170008BBB84BB81B3806F81BB12BA15BA0E945E
:1001800041008CE00E9436008FE295E70197F1F77D
:1001900000C0000080E90E94360098E79A95F1F7C8
:1001A00087EA0E94800028E72A95F1F783E20E94FF
:1001B000800088E78A95F1F787EA0E94800098E737
:1001C0009A95F1F782E60E94800028E72A95F1F7D8
:1001D00087EA0E94800088E78A95F1F786E50E9409
:1001E000800098E79A95F1F787EA0E94800028E757
:1001F0002A95F1F78EE50E94800088E78A95F1F74D
:1002000087EA0E94800098E79A95F1F781E70E94BB
:10021000800028E72A95F1F78CE80E94360088E7ED
:100220008A95F1F787EA0E94800098E79A95F1F79E
:100230008AE50E94800028E72A95F1F787EA0E9464
:10024000800088E78A95F1F785E50E94800098E7AD
:100250009A95F1F787EA0E94800028E72A95F1F73E
:1002600087E50E94800088E78A95F1F787EA0E9477
:10027000800098E79A95F1F784E60E94800028E7CD
:100280002A95F1F781E80E943600D0E010E000E006
:1002900084E6F82ECAE080E20E94800088E78A9512
:1002A000F1F7802F6F2D0E94CB016C2F0E94CB01A4
:1002B00080E3890F0E94800098E79A95F1F7802FDC
:1002C0006C2F0E94CB010E94CB0180E3890F0E941A
:1002D000800028E72A95F1F7802F6C2F0E94CB0130
:1002E00080E3890F0E94800088E78A95F1F78AE30E
:1002F0000E94800098E79A95F1F7812F6C2F0E9459
:10030000CB010E94CB0180E3890F0E94800028E787
:100310002A95F1F7812F6C2F0E94CB0180E3890F82
:100320000E94800088E78A95F1F78AE30E948000A6
:1003300098E79A95F1F78D2F6C2F0E94CB010E94C0
:10034000CB0180E3890F0E94800028E72A95F1F70E
:100350008D2F6C2F0E94CB0180E3890F0E948000BB
:1003600088E78A95F1F781E80E943600DF5FDC3389
:1003700041F41F5F1C3321F40F5FD0E010E001C097
:10038000D0E09FEF2EE984E2915020408040E1F7D9
:1003900000C0000080CF991B79E004C0991F961718
:1003A00008F0961B881F7A95C9F780950895F894F0
:0203B000FFCF7D
:00000001FF
