:100000000C942A000C943F000C943F000C943F0089
:100010000C943F000C943F000C943F000C943F0064
:100020000C943F000C943F000C943F000C943F0054
:100030000C943F000C943F000C943F000C943F0044
:100040000C943F000C943F000C943F000C943F0034
:100050000C943F0011241FBECFE5D4E0DEBFCDBF1E
:1000600010E0A0E6B0E0E2EAF1E002C005900D92F7
:10007000A037B107D9F70E94BF000C94CF000C94B1
:10008000000086E880BD88E18AB982E08BB910BCA7
:1000900089B908955D9BFECF8CB908955F9BFECF13
:1000A0008CB108950F931F93CF93DF93082F192FCF
:1000B000C0E0D0E007C00E944A00219684E0C03032
:1000C000D80729F0F80181918F018823A1F7DF91EA
:1000D000CF911F910F910895FF920F931F93DF937C
:1000E000CF93CDB7DEB760970FB6F894DEBF0FBEE3
:1000F000CDBFF82EDE011196E0E6F0E080E1019040
:100100000D928150E1F78F2D82958F708E010F5FD8
:100110001F4FF801E80FF11D80810E944A008F2DCA
:100120008F70F801E80FF11D80810E944A0080E283
:100130000E944A0060960FB6F894DEBF0FBECDBF96
:10014000CF91DF911F910F91FF90089580EB87BBB6
:1001500081E08EB982E58DB9089581E08EB981E59F
:100160008DB9089581E08EB982E58DB908958FB972
:10017000779BFECF8FB10E946C008FB1089583E012
:1001800087BBC09A0E94A6000E944100C09880E0F0
:100190000E94B7008FEF0E94B700C09AFFCFF8947B
:0201A000FFCF8F
:1001A20030313233343536373839616263646566EB
:00000001FF
