:100000000C942A000C943F000C943F000C943F0089
:100010000C943F000C943F000C943F000C943F0064
:100020000C943F000C943F000C943F000C943F0054
:100030000C943F000C943F000C943F000C943F0044
:100040000C943F000C943F000C943F000C943F0034
:100050000C943F0011241FBECFE5D4E0DEBFCDBF1E
:1000600010E0A0E6B0E0E8E5F3E002C005900D92F4
:10007000A83FB107D9F70E94BF000C94AA010C94C5
:10008000000086E880BD88E18AB982E08BB910BCA7
:1000900089B908955D9BFECF8CB908955F9BFECF13
:1000A0008CB108950F931F93CF93DF93082F192FCF
:1000B000C0E0D0E007C00E944A00219684E0C03032
:1000C000D80729F0F80181918F018823A1F7DF91EA
:1000D000CF911F910F910895FF920F931F93DF937C
:1000E000CF93CDB7DEB760970FB6F894DEBF0FBEE3
:1000F000CDBFF82EDE011196E7EEF0E080E1019031
:100100000D928150E1F78F2D82958F708E010F5FD8
:100110001F4FF801E80FF11D80810E944A008F2DCA
:100120008F70F801E80FF11D80810E944A0080E283
:100130000E944A0060960FB6F894DEBF0FBECDBF96
:10014000CF91DF911F910F91FF90089580EB87BBB6
:1001500081E08EB982E58DB9089581E08EB981E59F
:100160008DB9089581E08EB982E58DB908958FB972
:10017000779BFECF8FB10E946C008FB108950F93D3
:100180001F9380E781BB82B382BB83E087BBC09AA9
:100190000E94A6000E94410010E08FEF9AE1A7EBB9
:1001A00081509040A040E1F700C0000080E690E060
:1001B0000E945200C09880E00E94B7008FEF0E941A
:1001C000B700082FC09A94E09A95F1F7C09880E2A2
:1001D0000E94B700802F82600E94B700C09AA4E0FE
:1001E000AA95F1F7C09880E00E94B7008FEF0E94B7
:1001F000B700C09AB4E0BA95F1F787E293E20197AD
:10020000F1F700C000008DE690E00E945200C09817
:1002100080EA0E94B700812F0E94B700C09A1F5F3A
:10022000143008F010E094E09A95F1F784E790E03C
:100230000E945200C19AA0E5AA95F1F7C1988FE7F4
:1002400099EAA3E081509040A040E1F700C000008F
:1002500083E890E00E945200C09880E00E94B700BE
:100260008FEF0E94B700082FC09A94E09A95F1F79B
:10027000C09880E20E94B700802F8D7F0E94B70057
:10028000C09A8FE799EAA3E081509040A040E1F73F
:1002900000C0000080E990E00E945200C0988FEFFB
:1002A0000E94B700C09A94E09A95F1F7B299FECFF8
:1002B00080E990E00E945200C0988FEF0E94B70042
:1002C000082FC09AA4E0AA95F1F784FF11C082EA32
:1002D00090E00E945200C09887E20E94B700802FF1
:1002E00080610E94B700C09AB4E0BA95F1F725C0CA
:1002F00085FF11C084EC90E00E945200C09887E214
:100300000E94B700802F80620E94B700C09A84E0EC
:100310008A95F1F712C086FF10C087ED90E00E9429
:100320005200C09887E20E94B700802F80640E942C
:10033000B700C09A94E09A95F1F780E990E00E94A6
:100340005200C0988FEF0E94B700C09AA4E0AA950F
:08035000F1F723CFF894FFCF71
:100358000A5057525F5550203D20310A000A446127
:1003680074610A000A5472616E736D697474696EFF
:10037800670A000A5057525F5550203D20300A0046
:100388000A53746174757320726567697374657252
:100398000A000A4D6178696D756D20726574726125
:1003A8006E736D697373696F6E73207265616368CC
:1003B80065640A000A44617461207472616E736D29
:1003C80069747465640A000A446174612072656323
:1003D80065697665640A003031323334353637382A
:0803E80039616263646566007F
:00000001FF
