:100000000C942A000C94B9020C941E030C94470023
:100010000C9447000C9447000C9447000C94470044
:100020000C9447000C9447000C9447000C94470034
:100030000C9447000C9447000C9447000C94470024
:100040000C9447000C9447000C943E020C946302FD
:100050000C94470011241FBECFE5D4E0DEBFCDBF16
:1000600010E0A0E6B0E0E4EFFDE002C005900D92E4
:10007000A838B107D9F710E0A8E8B0E001C01D9298
:10008000A93CB107E1F70E94F4050C94F8060C9422
:10009000000086E880BD88E18AB982E08BB910BC97
:1000A00019B808955D9BFECF8CB908955F9BFECF74
:1000B0008CB108950F931F93CF93DF93EC018C01C4
:1000C0001C5F8991882329F00E945200C017D10734
:1000D000C1F7DF91CF911F910F9108951F93CF9397
:1000E000DF93CDB7DEB760970FB6F894DEBF0FBED3
:1000F000CDBF182F80E1E4E6F0E0DE01119601901B
:100100000D928A95E1F7812F82958F70E1E0F0E002
:10011000EC0FFD1FE80FF11D80810E9452001F703F
:10012000E1E0F0E0EC0FFD1FE10FF11D80810E9486
:10013000520080E260960FB6F894DEBF0FBECDBFCE
:10014000DF91CF911F910C94520087B3806B87BBD6
:1001500081E08EB980E58DB9089581E08EB981E5A1
:100160008DB9089581E08EB982E58DB908958FB972
:10017000779BFECF8FB10895EF92FF921F93CF939D
:10018000DF931F92CDB7DEB7182F88B3C39881E6EF
:1001900099830E94B700E12E9981F92E10E28FEF2A
:1001A0000E94B700F70181937F011150C1F7C39AF4
:1001B000F5E0FA95F1F700000F90DF91CF911F91D4
:1001C000FF90EF900895EF92FF921F93CF93DF93EC
:1001D0001F92CDB7DEB7182F88B3C39880EA9983F2
:1001E0000E94B700E12E9981F92E10E2F70181916A
:1001F0007F010E94B7001150C9F7C39AF5E0FA9544
:10020000F1F70000C09A85E38A95F1F70000C098E5
:10021000E7E5F2E03197F1F700C000000F90DF91C1
:10022000CF911F91FF90EF90089598B3C3980E94CB
:10023000B7008FEF0E94B700C39A95E09A95F1F747
:1002400000000895CF93DF931F92CDB7DEB798B328
:10025000C398806269830E94B7006981862F0E94DB
:10026000B700C39A85E08A95F1F700000F90DF91FF
:10027000CF91089580E090E00E941501682F6260A0
:1002800080E090E00E9422018FE697E10197F1F76C
:1002900000C00000089580E090E00E941501682FE2
:1002A0006D7F80E090E00C942201C09880E090E0A7
:1002B0000E941501682F616080E090E00E94220199
:1002C000C09A87E592E00197F1F700C00000089519
:1002D000C09880E090E00E941501682F6E7F80E05A
:1002E00090E00C94220187B3896087BBC39AC098C1
:1002F00060E281E190E00E9422010E943A010E94A6
:10030000550187E090E00E94150184FF03C0682F2B
:10031000606109C085FF03C0682F606204C086FF6A
:1003200010C0682F606487E090E00E94220160E0C6
:1003300081EE90E00E94220160E082EE90E00C9459
:1003400022010895E199FECF1FBA8EBB6DBBE29AE0
:10035000E19A0895E199FECF1FBA8EBBE09A8DB362
:10036000089581B3806F81BB8AB38FEF8ABB0895F4
:100370009091A300911114C092B39F7092BB64E658
:100380000E94D806892F6AE00E94D806E82FF0E084
:10039000EE0FFF1FEC58FF4F80818BBB979A44C034
:1003A0009130A9F492B39F7092BB64E60E94D80684
:1003B000892F6AE00E94D806E92FF0E0EE0FFF1FB8
:1003C000EC58FF4F80818BBBDA9A969A2DC0923001
:1003D000A9F492B39F7092BB862F64E60E94D80660
:1003E000892F6AE00E94D806E82FF0E0EE0FFF1F89
:1003F000EC58FF4F80818BBB959A16C09330A1F4C7
:1004000092B39F7092BB862F64E60E94D806892F14
:100410006AE00E94D806E92FF0E0EE0FFF1FEC58CB
:10042000FF4F80818BBB949A8091A3008F5F8430B3
:1004300018F48093A30008951092A300089585B73F
:10044000826085BF8BB780648BBF089585B7886055
:1004500085BF8BB780688BBF089584B7806484BFE5
:100460008BB780628BBF089513BE8BE58CBF83B7BB
:100470008A6083BF89B7826089BF08951F920F92F7
:100480000FB60F9211248F939F938BB7807C19F432
:100490008AB7806C8ABF8BB790EC89278BBF80911D
:1004A000630091E08927809363008091620089272F
:1004B0008093620010928B009F918F910F900FBEDE
:1004C0000F901F9018951F920F920FB60F92112444
:1004D0002F933F934F935F936F937F938F939F934C
:1004E000AF93BF93EF93FF93609195008091960037
:1004F0000E94B801FF91EF91BF91AF919F918F91B1
:100500007F916F915F914F913F912F910F900FBE0F
:100510000F901F901895CF9380E00E94AA01C82FDA
:1005200081E00E94AA01CF3F11F08F3F61F46AE0A1
:1005300080E00E94A2016AE081E00E94A2018AE0BC
:100540008093A50002C0C093A5008093A400CF9122
:10055000089580E00895BC9AC49A08951092C60048
:1005600081E080938B0080918A008F5F80938A0066
:1005700008951F920F920FB60F9211242F933F935D
:100580004F935F936F937F938F939F93AF93BF939B
:10059000EF93FF93809196008F5F809396009091E8
:1005A000910080918E00891720F4292F281B822F1B
:1005B00001C0891B809390008091920020918D0052
:1005C000281720F4382F321B232F01C0281B20931B
:1005D0008F0090938E0080938D000E94AE029091C8
:1005E00096008091A500981318C080918C0081110D
:1005F00014C08BB7807C19F48AB7806C8ABF8BB724
:1006000090EC89278BBF8091630091E089278093CC
:10061000630090938C0010926200FF91EF91BF9164
:10062000AF919F918F917F916F915F914F913F918A
:100630002F910F900FBE0F901F9018951F920F9241
:100640000FB60F9211242F933F934F935F936F93A5
:100650007F938F939F93AF93BF93EF93FF9380917B
:1006600095008F5F809395009091910080918E000E
:10067000891720F4292F281B822F01C0891B809302
:1006800090008091920020918D00281720F4382F3F
:10069000321B232F01C0281B20938F0090938E00C4
:1006A00080938D000E94AE02909195008091A400ED
:1006B000981318C080918C00811114C08BB7807C76
:1006C00019F48AB7806C8ABF8BB790EC89278BBFEF
:1006D0008091630091E089278093630090938C0060
:1006E00010926200FF91EF91BF91AF919F918F9116
:1006F0007F916F915F914F913F912F910F900FBE1E
:100700000F901F9018950F931F93CF93DF93FA01CB
:10071000D90110821C92E801688346E076956795BE
:100720004A95E1F7382F330F330F362B2C91232BBB
:100730002C9396958795969587959081982B908385
:10074000DF91CF911F910F910895DF92EF92FF9269
:100750000F931F93CF93DF9300D01F92CDB7DEB7D7
:100760007C01FC011081111116C0809196008183DB
:100770008091950082838091920083838091910083
:10078000848380918D00858380918E008683809103
:100790006200878378C11130B1F4FC016181662366
:1007A00009F467C18281882309F463C16093A500BD
:1007B0008093A40080E00E94A2016091A40081E0E7
:1007C0000E94A20163C11230D9F4FC0133819581EA
:1007D00024818681931720F0281708F44AC153C159
:1007E000F7014181409396004281409395003093F8
:1007F00092002093910090938D0080938E0043C1CE
:10080000133081F48BB7807C19F48AB7806C8ABF6F
:100810008BB78F738BBF109263001092620010929F
:100820008B0031C1143079F48BB7807C19F48AB70E
:10083000806C8ABF8BB7806C8BBF81E08093630034
:100840008093620020C11530E1F48BB7807C19F4ED
:100850008AB7806C8ABF8BB78F738BBF109263008F
:1008600010926200109296001092950010929200E1
:100870001092910010928D0010928E0010928C00B8
:1008800002C11F3F09F401C1163009F0F7C0809181
:100890006200882379F08BB7807C19F48AB7806C6A
:1008A0008ABF8BB78F738BBF109263001092620068
:1008B00010928B00F7018181803108F0DAC098B383
:1008C00090916100891769F0809361001092A200F5
:1008D0001092A10010929F008093A00081E080936D
:1008E000600080916000882309F4CDC06091A10070
:1008F0007091A2008E010F5F1F4F9E012E5F3F4F30
:10090000AE014D5F5F4F80E090E00E948303C4988A
:1009100084E80E94B7008B810E94B7008A810E9400
:10092000B70089810E94B70082E080939E00E5E0D5
:10093000DE2E80919E00803208F092C0909160007F
:10094000992309F48DC0F701E80FF11D80810E9401
:10095000B7008091A1009091A20001969093A2000F
:100960008093A1008031924009F074C01092A200DF
:100970001092A100C49A25E32A95F1F70000C498CB
:100980006091A1007091A2008E010F5F1F4F9E0128
:100990002E5F3F4FAE014D5F5F4F80919F00909162
:1009A000A0000E94830383E80E94B7008B810E940D
:1009B000B7008A810E94B70089810E94B700C49A5B
:1009C00085E38A95F1F70000C49887ED0E94B7008F
:1009D0008FEF0E94B70087FFFBCFC49A80919F00E2
:1009E0009091A00001969093A00080939F00209189
:1009F000610030E02F5F3F4F322F22272817390741
:100A000038F48FEFF7018083D1821092600022C00A
:100A1000F5E3FA95F1F700006091A1007091A20052
:100A20008E010F5F1F4F9E012E5F3F4FAE014D5F46
:100A30005F4F80E090E00E948303C49884E80E94A6
:100A4000B7008B810E94B7008A810E94B70089811C
:100A50000E94B70080919E008F5F80939E0069CFB7
:100A6000C49AF70180818F3F71F08FEF808386E019
:100A700009C08FEFF701808384E004C08FEFF70196
:100A8000808383E0818311E001C010E0812F0F900B
:100A90000F900F90DF91CF911F910F91FF90EF90EA
:100AA000DF9008950F931F93CF93DF9300D01F9291
:100AB000CDB7DEB780918B00813009F08DC0C39B2C
:100AC0008BC080918A0090919D008917C9F1809315
:100AD0009D009091C60010929B0090939C001092F4
:100AE0009A001092990010929800109297008E012F
:100AF0000D5F1F4F9E012E5F3F4FAE014F5F5F4F57
:100B000060E070E080E00E948303C49883E00E946C
:100B1000B70089810E94B7008A810E94B7008B814B
:100B20000E94B7008FEF0E94B70085BB80919700AD
:100B300090919800019690939800809397002EC012
:100B400060919700709198006F5F7F4F709398004D
:100B50006093970080919B0090919C00603122E00F
:100B60007207F0F48E010D5F1F4F9E012E5F3F4F05
:100B7000AE014F5F5F4F0E948303C49883E00E94E1
:100B8000B70089810E94B7008A810E94B7008B81DB
:100B90000E94B7008FEF0E94B70085BBC49A1CC0AB
:100BA0001092980010929700019690939C00809369
:100BB0009B008091990090919A00019690939A00E1
:100BC000809399008F3F910539F030F010929A0090
:100BD0001092990010928B000F900F900F90DF9160
:100BE000CF911F910F910895CF93DF9300D01F9263
:100BF000CDB7DEB72FEF89E698E1215080409040D5
:100C0000E1F700C000000E9449000E94A5000E9478
:100C1000AB028FEF84BB0E9434020E94B1018FB7F8
:100C200080688FBF10929500E12CF12C8E010F5F30
:100C30001F4F9E012E5F3F4FAE014D5F5F4F60E043
:100C400070E080E090E00E948303C49884E80E94F2
:100C5000B7008B810E94B7008A810E94B70089810A
:100C60000E94B70000E112E08E2D0E94B7000150F3
:100C7000110901151105C1F7809195008F5F8093CF
:100C80009500C49A25E32A95F1F70000C4988E01D7
:100C90000F5F1F4F9E012E5F3F4FAE014D5F5F4FB5
:100CA00060E070E0C7010E94830383E80E94B70000
:100CB0008B810E94B7008A810E94B70089810E94BF
:100CC000B700C49A8FEF96E721E081509040204012
:100CD000E1F700C000008FEFE81AF80AE11491E094
:100CE000F90609F0A3CF8FEF809396008E010F5F76
:100CF0001F4F9E012E5F3F4FAE014D5F5F4F60E083
:100D000070E080E090E00E948303C49883E00E943A
:100D1000B7008B810E94B7008A810E94B700898149
:100D20000E94B700E12CF12C60E1C62E62E0D62EC5
:100D30008FEF0E94B70080939600C701B6010E9412
:100D4000E406892B29F5809195008F5F80939500AB
:100D5000C49A25E32A95F1F700008E010F5F1F4F1B
:100D60009E012E5F3F4FAE014D5F5F4F60E070E030
:100D7000C7010E948303C49883E00E94B7008B815F
:100D80000E94B7008A810E94B70089810E94B70043
:100D90008FEFE81AF80A8FE39CE90197F1F700C09A
:100DA000000098EEE9169DEFF90611F6C49AFFCF00
:100DB000991B79E004C0991F961708F0961B881FAD
:100DC0007A95C9F780950895AA1BBB1B51E107C00E
:100DD000AA1FBB1FA617B70710F0A61BB70B881FCB
:100DE000991F5A95A9F780959095BC01CD0108955A
:040DF000F894FFCFA5
:100DF40001FF01013031323334353637383961621D
:100E040063646566FA002200B900AB006300CB009E
:080E1400DB00A200FB00EB0073
:00000001FF
