:100000000C942A000C9434000C9434000C943400AA
:100010000C9434000C9434000C9434000C94340090
:100020000C9434000C9434000C9434000C94340080
:100030000C9434000C9434000C9434000C94340070
:100040000C9434000C9434000C9434000C94340060
:100050000C94340011241FBECFE5D4E0DEBFCDBF29
:100060000E9436000C9448000C9400008FEF84BB73
:1000700081E015BAEFECF7E03197F1F700C000002E
:1000800085BBEFECF7E03197F1F700C00000F1CF4E
:04009000F894FFCF12
:00000001FF
