:100000000C942A000C943E020C9491020C9447002C
:100010000C9447000C9447000C9447000C94470044
:100020000C9447000C9447000C9447000C94470034
:100030000C9447000C9447000C9447000C94470024
:100040000C9447000C9447000C94E4020C940D03AC
:100050000C94470011241FBECFE5D4E0DEBFCDBF16
:1000600010E0A0E6B0E0EAE6FBE002C005900D92E9
:10007000A838B107D9F710E0A8E8B0E001C01D9298
:10008000A93CB107E1F70E9420050C94B3050C943C
:10009000000086E880BD88E18AB982E08BB910BC97
:1000A00019B808955D9BFECF8CB908955F9BFECF74
:1000B0008CB108950F931F93CF93DF93EC018C01C4
:1000C0001C5F8991882329F00E945200C017D10734
:1000D000C1F7DF91CF911F910F9108951F93CF9397
:1000E000DF93CDB7DEB760970FB6F894DEBF0FBED3
:1000F000CDBF182F80E1E3E6F0E0DE01119601901C
:100100000D928A95E1F7812F82958F70E1E0F0E002
:10011000EC0FFD1FE80FF11D80810E9452001F703F
:10012000E1E0F0E0EC0FFD1FE10FF11D80810E9486
:10013000520080E260960FB6F894DEBF0FBECDBFCE
:10014000DF91CF911F910C94520087B3806B87BBD6
:1001500081E08EB980E58DB9089581E08EB981E5A1
:100160008DB9089581E08EB982E58DB908958FB972
:10017000779BFECF8FB10895EF92FF921F93CF939D
:10018000DF931F92CDB7DEB7182F88B3C39881E6EF
:1001900099830E94B700E12E9981F92E10E28FEF2A
:1001A0000E94B700F70181937F011150C1F7C39AF4
:1001B000F5E0FA95F1F700000F90DF91CF911F91D4
:1001C000FF90EF900895EF92FF921F93CF93DF93EC
:1001D0001F92CDB7DEB7182F88B3C39880EA9983F2
:1001E0000E94B700E12E9981F92E10E2F70181916A
:1001F0007F010E94B7001150C9F7C39AF5E0FA9544
:10020000F1F70000C09A85E38A95F1F70000C098E5
:10021000E7E5F2E03197F1F700C000000F90DF91C1
:10022000CF911F91FF90EF90089598B3C3980E94CB
:10023000B7008FEF0E94B700C39A95E09A95F1F747
:1002400000000895CF93DF931F92CDB7DEB798B328
:10025000C398806269830E94B7006981862F0E94DB
:10026000B700C39A85E08A95F1F700000F90DF91FF
:10027000CF91089580E090E00E941501682F6260A0
:1002800080E090E00E9422018FE697E10197F1F76C
:1002900000C00000089580E090E00E941501682FE2
:1002A0006D7F80E090E00C942201C09880E090E0A7
:1002B0000E941501682F616080E090E00E94220199
:1002C000C09A87E592E00197F1F700C00000089519
:1002D000C09880E090E00E941501682F6E7F80E05A
:1002E00090E00C94220187B3896087BBC39AC098C1
:1002F00060E281E190E00E9422010E943A010E94A6
:10030000550187E090E00E94150184FF03C0682F2B
:10031000606109C085FF03C0682F606204C086FF6A
:1003200010C0682F606487E090E00E94220160E0C6
:1003300081EE90E00E94220160E082EE90E00C9459
:1003400022010895E199FECF1FBA8EBB6DBBE29AE0
:10035000E19A0895E199FECF1FBA8EBBE09A8DB362
:10036000089581B3806F81BB8AB38FEF8ABB0895F4
:100370009091A300911114C092B39F7092BB64E658
:100380000E949305892F6AE00E949305E82FF0E010
:10039000EE0FFF1FED58FF4F80818BBB979A44C033
:1003A0009130A9F492B39F7092BB64E60E949305CA
:1003B000892F6AE00E949305E92FF0E0EE0FFF1FFE
:1003C000ED58FF4F80818BBBDA9A969A2DC0923000
:1003D000A9F492B39F7092BB862F64E60E949305A6
:1003E000892F6AE00E949305E82FF0E0EE0FFF1FCF
:1003F000ED58FF4F80818BBB959A16C09330A1F4C6
:1004000092B39F7092BB862F64E60E949305892F5A
:100410006AE00E949305E92FF0E0EE0FFF1FED5810
:10042000FF4F80818BBB949A8091A3008F5F8430B3
:1004300018F48093A30008951092A300089585B73F
:10044000826085BF8BB780648BBF089585B7886055
:1004500085BF8BB780688BBF089584B7806484BFE5
:100460008BB780628BBF089513BE85E68CBF83B7C0
:100470008A6083BF89B7826089BF08951F920F92F7
:100480000FB60F9211242F933F934F938F939F9307
:10049000809161008823D9F11092610010928B0045
:1004A00010928A0080919B008F5F80939B00209127
:1004B000960090919300921720F4322F391B932FBE
:1004C00001C0921B909395009091970030919200FB
:1004D000391720F4492F431B342F01C0391B3093A7
:1004E000940020939300909392009091A50089131B
:1004F0000EC08091910081110AC08091620091E04C
:1005000089278093620090939100109260009F91E0
:100510008F914F913F912F910F900FBE0F901F9091
:1005200018951F920F920FB60F9211242F933F939D
:100530004F938F939F93809161008823D9F11092FC
:10054000610010928B0010928A0080919A008F5F58
:1005500080939A002091960090919300921720F436
:10056000322F391B932F01C0921B909395009091CD
:10057000970030919200391720F4492F431B342FF4
:1005800001C0391B30939400209393009093920004
:100590009091A40089130EC08091910081110AC02E
:1005A0008091620091E0892780936200909391008E
:1005B000109260009F918F914F913F912F910F90DA
:1005C0000FBE0F901F9018951F920F920FB60F92AB
:1005D00011248F939F9381E080938C0010928E0062
:1005E00010928D009BB79F7D9BBF909162009827D2
:1005F0009093620090916100982790936100909190
:100600006000982790936000109290009F918F91C6
:100610000F900FBE0F901F9018951F920F920FB65C
:100620000F9211242F933F934F935F936F937F9378
:100630008F939F93AF93BF93EF93FF9380918C0021
:10064000813089F480918D0090918E000196909375
:100650008E0080938D008938934128F080E28ABF14
:100660008BB780628BBF80916100811112C0209195
:100670006000213071F480918A0090918B00019686
:1006800090938B0080938A008938934110F02093D7
:100690006100809198009091990001969093990043
:1006A000809398008C329645F0F080916200813002
:1006B00029F4809196008F5F8093960010929900A4
:1006C000109298008091C7009091C8009C012F5F04
:1006D0003F4F3093C8002093C7004F9720F01092EF
:1006E000C8001092C700809196008C3359F4809115
:1006F0006200813039F4809197008F5F809397007A
:10070000109296008091C7009091C80063E170E05C
:100710000E949F05059728F46091960080919700AC
:1007200004C060919A0080919B000E94B801FF91E3
:10073000EF91BF91AF919F918F917F916F915F9159
:100740004F913F912F910F900FBE0F901F901895D2
:10075000CF9380E00E94AA01C82F81E00E94AA01E5
:10076000CF3F11F08F3F61F46AE080E00E94A20168
:100770006AE081E00E94A2018AE08093A50002C0A5
:10078000C093A5008093A400CF910895CF93FC015E
:10079000C081C11116C080919B00818380919A0015
:1007A00082838091970083838091960084838091D7
:1007B0009200858380919300868380916000878377
:1007C0005EC0C130B9F46181662319F08281811164
:1007D00004C08FEF808384E059C06093A5008093AC
:1007E000A40080E00E94A2016091A40081E00E9428
:1007F000A2014FC0C230C1F433819581248186812A
:10080000931718F0281728F33AC0418140939B00B2
:10081000428140939A0030939700209396009093E2
:100820009200809393002BC0C33049F41092610072
:1008300010926200109260001092900020C0C430AC
:1008400041F481E0809361008093620080936000B6
:1008500016C0C530B1F4109261001092620010927F
:10086000600010929B0010929A00109297001092D4
:100870009600109292001092930010929100C1E0A5
:1008800008C0CF3F29F08FEF808383E08183F7CFCB
:10089000C0E08C2FCF91089580E00895BC9AC49A4F
:1008A00008951092C60081E08093900080918F009F
:1008B0008F5F80938F0008950F931F93CF93DF93E3
:1008C000FA01D90110821C92E801688346E076950E
:1008D00067954A95E1F7382F330F330F362B2C915C
:1008E000232B2C9396958795969587959081982B99
:1008F0009083DF91CF911F910F9108950F931F93D4
:10090000CF93DF9300D01F92CDB7DEB780919000D8
:10091000813009F08DC0C39B8BC080918F00909176
:10092000A2008917C9F18093A2009091C60010928D
:10093000A0009093A10010929F0010929E00109230
:100940009D0010929C008E010D5F1F4F9E012E5F37
:100950003F4FAE014F5F5F4F60E070E080E00E946C
:100960005C04C49883E00E94B70089810E94B700AC
:100970008A810E94B7008B810E94B7008FEF0E948E
:10098000B70085BB80919C0090919D00019690934B
:100990009D0080939C002EC060919C0070919D00F2
:1009A0006F5F7F4F70939D0060939C008091A000CB
:1009B0009091A100603122E07207F0F48E010D5F8A
:1009C0001F4F9E012E5F3F4FAE014F5F5F4F0E9452
:1009D0005C04C49883E00E94B70089810E94B7003C
:1009E0008A810E94B7008B810E94B7008FEF0E941E
:1009F000B70085BBC49A1CC010929D0010929C0049
:100A000001969093A1008093A00080919E00909108
:100A10009F00019690939F0080939E008F3F9105C9
:100A200039F030F010929F0010929E0010929000CA
:100A30000F900F900F90DF91CF911F910F9108951C
:100A40002FEF89E698E1215080409040E1F700C007
:100A500000000E94A8030E9449000E94A5000E9475
:100A600073010E944E040E941F020E9426020E94EF
:100A70002D020E9434020E94B1018FB780688FBF9F
:100A80000E945501B199FECF87E090E00E941501C8
:100A900086FFF6CF86EA90E00E94BC0086EA90E0EE
:100AA0000E94C603882361F387E090E00E9415014D
:100AB000682F606487E090E00E94220160E082EE8F
:100AC00090E00E9422010E946801D4E686EA90E04C
:100AD0000E94E3008FE39CE90197F1F700C000005A
:100AE00087E090E00E941501C82F84FF0BC0C06111
:100AF0006C2F87E090E00E94220160E081EE90E0A0
:100B00000E942201C5FD08C0D15001F760E081EECE
:100B100090E00E942201B4CF6C2F606287E090E0E9
:100B20000E942201F3CF991B79E004C0991F961708
:100B300008F0961B881F7A95C9F780950895AA1B1F
:100B4000BB1B51E107C0AA1FBB1FA617B70710F0B8
:100B5000A61BB70B881F991F5A95A9F780959095EA
:0A0B6000BC01CD010895F894FFCF09
:100B6A000101013031323334353637383961626345
:100B7A00646566FA002200B900AB006300CB00DBB3
:080B8A0000A200FB00EB0000DB
:00000001FF
