:100000000C942A000C9447000C9447000C94470071
:100010000C9447000C9447000C9447000C94470044
:100020000C9447000C9447000C9447000C94470034
:100030000C9447000C9447000C9447000C94470024
:100040000C9447000C9447000C9447000C94470014
:100050000C94470011241FBECFE5D4E0DEBFCDBF16
:1000600010E0A0E6B0E0E2E4F5E002C005900D92F9
:10007000A037B107D9F710E0A0E7B0E001C01D92AA
:10008000A239B107E1F70E94C2010C949F020C94BF
:10009000000086E880BD88E18AB982E08BB910BC97
:1000A00019B808955D9BFECF8CB908955F9BFECF74
:1000B0008CB108950F931F93CF93DF93EC018C01C4
:1000C0001C5F8991882329F00E945200C017D10734
:1000D000C1F7DF91CF911F910F9108951F93CF9397
:1000E000DF93CDB7DEB760970FB6F894DEBF0FBED3
:1000F000CDBF182F80E1E0E6F0E0DE01119601901F
:100100000D928A95E1F7812F82958F70E1E0F0E002
:10011000EC0FFD1FE80FF11D80810E9452001F703F
:10012000E1E0F0E0EC0FFD1FE10FF11D80810E9486
:10013000520080E260960FB6F894DEBF0FBECDBFCE
:10014000DF91CF911F910C94520087B3806B87BBD6
:1001500081E08EB980E58DB9089581E08EB981E5A1
:100160008DB9089581E08EB982E58DB908958FB972
:10017000779BFECF8FB10895EF92FF921F93CF939D
:10018000DF931F92CDB7DEB7182F88B3C39881E6EF
:1001900099830E94B700E12E9981F92E10E28FEF2A
:1001A0000E94B700F70181937F011150C1F7C39AF4
:1001B000F5E0FA95F1F700000F90DF91CF911F91D4
:1001C000FF90EF900895EF92FF921F93CF93DF93EC
:1001D0001F92CDB7DEB7182F88B3C39880EA9983F2
:1001E0000E94B700E12E9981F92E10E2F70181916A
:1001F0007F010E94B7001150C9F7C39AF5E0FA9544
:10020000F1F70000C09A85E38A95F1F70000C098E5
:10021000E7E5F2E03197F1F700C000000F90DF91C1
:10022000CF911F91FF90EF90089598B3C3980E94CB
:10023000B7008FEF0E94B700C39A95E09A95F1F747
:1002400000000895CF93DF931F92CDB7DEB798B328
:10025000C398806269830E94B7006981862F0E94DB
:10026000B700C39A85E08A95F1F700000F90DF91FF
:10027000CF91089580E090E00E941501682F6260A0
:1002800080E090E00E9422018FE697E10197F1F76C
:1002900000C00000089580E090E00E941501682FE2
:1002A0006D7F80E090E00C942201C09880E090E0A7
:1002B0000E941501682F616080E090E00E94220199
:1002C000C09A87E592E00197F1F700C00000089519
:1002D000C09880E090E00E941501682F6E7F80E05A
:1002E00090E00C94220187B3896087BBC39AC098C1
:1002F00060E281E190E00E9422010E943A010E94A6
:10030000550187E090E00E94150184FF03C0682F2B
:10031000606109C085FF03C0682F606204C086FF6A
:1003200010C0682F606487E090E00E94220160E0C6
:1003300081EE90E00E94220160E082EE90E00C9459
:10034000220108952091700030917100C901019639
:100350009093710080937000893F4AE2940770F097
:10036000285F3A42283F3A4258F0813F954528F0AD
:10037000109271001092700003C008958FEF0895DD
:1003800080E008952FEF83ED90E32150804090406E
:10039000E1F700C000000E9449000E94A5000E94F1
:1003A000730183E08ABB0E9468018FEF8093720023
:1003B000D1E082E790E00E94E3002FEF81EE94E02D
:1003C000215080409040E1F700C0000087E090E0BD
:1003D0000E941501C82F84FF0CC0C0616C2F87E0FC
:1003E00090E00E942201DBBB60E081EE90E00E9481
:1003F0002201C5FFDECF6C2F606287E090E00E9493
:10040000220160E081EE90E00E94220182E08BBB3D
:1004100010E0EE24E394DD24D39402E0FF24FA9468
:10042000C2E7D0E00E945600899320E0C239D2078B
:10043000C9F70E946801C0E082E790E00E94E300F3
:100440008FE39CE90197F1F700C0000087E090E09E
:100450000E941501D82F84FF0CC0D0616D2F87E05A
:1004600090E00E942201EBBA60E081EE90E00E94F1
:100470002201CF5FD5FD41C0C436F1F6F092720083
:1004800000937300C2E7D0E089910E94520090E08F
:10049000C239D907C9F760E081EE90E02BC0C436BD
:1004A00049F0CF5F8FE39CE90197F1F700C00000AE
:1004B000B199F5CF87E090E00E941501C82F86FF23
:1004C0002FC082E790E00E94BC006C2F606487E040
:1004D00090E00E94220110939100C2E7D0E0899140
:1004E0000E94520090E0C239D907C9F71F5F60E04F
:1004F00082EE90E00E94220193CF0BBB87E090E058
:100500000E941501682F606287E090E00E9422013E
:1005100060E081EE90E00E9422010E945501C8CF68
:10052000EBBAF0927200D0927300C2E7D0E08991EA
:100530000E94520020E0C239D207C9F7D8CFF89400
:02054000FFCFEB
:100542003031323334353637383961626364656647
:00000001FF
