:100000000C942A000C943F000C943F000C943F0089
:100010000C943F000C943F000C943F000C943F0064
:100020000C943F000C943F000C943F000C943F0054
:100030000C943F000C943F000C943F000C943F0044
:100040000C943F000C943F000C943F000C943F0034
:100050000C943F0011241FBECFE5D4E0DEBFCDBF1E
:1000600011E0A0E6B0E0E2EBFAE002C005900D92EC
:10007000AC38B107D9F70E9428050C9457050C94A9
:10008000000086E880BD88E18AB982E08BB910BCA7
:1000900019B808955D9BFECF8CB908955F9BFECF84
:1000A0008CB108950F931F93CF93DF93082F192FCF
:1000B000C0E0D0E007C00E944A00219684E0C03032
:1000C000D80729F0F80181918F018823A1F7DF91EA
:1000D000CF911F910F910895FF920F931F93DF937C
:1000E000CF93CDB7DEB760970FB6F894DEBF0FBEE3
:1000F000CDBFF82EDE011196ECE7F1E080E1019032
:100100000D928150E1F78F2D82958F708E010F5FD8
:100110001F4FF801E80FF11D80810E944A008F2DCA
:100120008F70F801E80FF11D80810E944A0080E283
:100130000E944A0060960FB6F894DEBF0FBECDBF96
:10014000CF91DF911F910F91FF90089580EB87BBB6
:1001500081E08EB982E58DB908951EB8089581E0D9
:100160008EB96898699A08958FB9779BFECF8FB141
:100170000E946C008FB10895EF920F931F93DF934D
:10018000CF9300D00F92CDB7DEB7182F8AE02B8324
:100190004A8369830E944A008CE30E944A00812FAF
:1001A0000E94B4006981862F0E94B4004A81842F86
:1001B0000E94B4002B81822F0E94B400802F0E94E5
:1001C000B4008E2D0E94B4008EE30E944A008AE0A3
:1001D0000E944A000F900F900F90CF91DF911F91D6
:1001E0000F91EF9008950F931F93CF93DF938C019E
:1001F000C0E0D0E08FEF0E94B40087FD04C0F8019A
:10020000808380E007C02196CF3FD10599F7F801A0
:10021000808381E0DF91CF911F910F9108958F929C
:100220009F92AF92BF92CF92DF92EF92FF920F9385
:100230001F93CF93DF93EC014B015A0169017801C1
:1002400000E010E08FEF0E94B40087FD17C08883A4
:100250008FEF0E94B400F40180838FEF0E94B400FE
:10026000F50180838FEF0E94B400F60180838FEF49
:100270000E94B400F701808380E007C00F5F1F4F2A
:100280000F3F1105F9F6888381E0DF91CF911F912F
:100290000F91FF90EF90DF90CF90BF90AF909F9025
:1002A0008F9008958F929F92AF92BF92CF92DF92DC
:1002B000EF92FF920F931F93CF93DF93EC014B01CB
:1002C0005A016901780100E010E08FEF0E94B4004C
:1002D00087FD17C088838FEF0E94B400F4018083EC
:1002E0008FEF0E94B400F50180838FEF0E94B4006D
:1002F000F60180838FEF0E94B400F701808380E0D5
:1003000007C00F5F1F4F0F3F1105F9F6888381E08B
:10031000DF91CF911F910F91FF90EF90DF90CF90E1
:10032000BF90AF909F908F9008952F923F924F92E1
:100330005F926F927F928F929F92AF92BF92CF9275
:10034000DF92EF920F931F93DF93CF9300D000D0F3
:1003500000D0CDB7DEB710E06E010894C11CD11CEF
:10036000C49A00E08FEF0E94B4000F5F0A30D1F70B
:10037000C49880E690E00E94520030E080E460E0A3
:1003800040E020E000E075E9E72E3E830E94BC00DB
:10039000C6010E94F3003E813F5F3F3019F0898122
:1003A000813061F78DE690E00E9452001F5F1F30A0
:1003B00019F089818130A1F68981813009F032C13B
:1003C000C49A1AE08FEF0E94B4001150D9F7C49874
:1003D00088E790E00E945200CC2455E0852E912CB5
:1003E0008C0E9D1E44E0642E712C6C0E7D1E33E03D
:1003F000432E512C4C0E5D1E22E0222E312C2C0E51
:100400003D1E5E010894A11CB11C88E460E040E040
:1004100021E005EE90EAE92E0E94BC00C401B30180
:10042000A201910185010E940F01C3948C2D8F3090
:1004300029F08D81813011F082FFE7CF85E890E0CF
:100440000E9452008D8182FF45C0C49A1AE08FEF4E
:100450000E94B4001150D9F7C49880E990E00E943E
:100460005200C12C12E0D12E5E010894A11CB11CD7
:1004700087E760E040E020E000E0B5E6EB2E0E9478
:10048000BC00C5010E94F30085EA90E00E94520082
:1004900089E660E040E020E0A5EEEA2E0E94BC0084
:1004A000C5010E94F3008AEA90E00E94520089810F
:1004B000882331F00894C108D108C114D104C1F6D1
:1004C0008FEA90E00E9452008981882309F0ACC035
:1004D00084E09AC08A81813009F0A8C08981853E74
:1004E00009F0A4C0C49A1AE08FEF0E94B400115022
:1004F000D9F7C49880E990E00E945200C12CF2E044
:10050000DF2E5E010894A11CB11C87E760E040E08B
:1005100020E000E0E5E6EE2E0E94BC00C5010E944E
:10052000F30085EA90E00E94520089E660E440E032
:1005300020E077E7E72E0E94BC00C5010E94F3008F
:100540008AEA90E00E9452008981882331F0089461
:10055000C108D108C114D104C1F68FEA90E00E940D
:1005600052008981882309F063C0C49A1AE08FEF92
:100570000E94B4001150D9F7C49882EC90E00E9418
:1005800052006FE0C62E55E0852E912C8C0E9D1EDC
:1005900044E0642E712C6C0E7D1E33E0432E512CF2
:1005A0004C0E5D1E22E0222E312C2C0E3D1E5E01D3
:1005B0000894A11CB11C8AE760E040E020E000E064
:1005C0009DEFE92E0E94BC00C401B301A20191017C
:1005D00085010E9452018FEF0E94B4008FEF0E94AC
:1005E000B4008FEF0E94B4008FEF0E94B4008FEF31
:1005F0000E94B400CA94F9F680ED90E00E94520087
:100600008D818823B9F480E180937B018AE00E9488
:100610004A0080917B010E946C008AE00E944A009F
:1006200080E009C081E007C082E005C083E003C02C
:1006300084E001C085E026960FB6F894DEBF0FBEB9
:10064000CDBFCF91DF911F910F91EF90DF90CF90B1
:10065000BF90AF909F908F907F906F905F904F90E2
:100660003F902F900895AF92BF92CF92DF92EF927A
:100670000F931F93DF93CF930F92CDB7DEB7C49A3A
:1006800000E08FEF0E94B4000F5F0A30D1F7C498EA
:10069000CC24DD245E010894A11CB11C8AE460E036
:1006A00040E020E000E0EBE1EE2E0E94BC00C5013E
:1006B0000E94F3000894C11CD11C8FE0C816D1041D
:1006C00019F08981882351F78981882329F500E071
:1006D00010E08FEF0E94B40089830F5F1F4F8E3FA1
:1006E00029F48CED90E00E94520006C082E00030B8
:1006F000180779F782E011C08FEF0E94B400898358
:100700000F5F1F4F82E000301807B0F38DEE90E0CE
:100710000E94520080E001C081E00F90CF91DF91F4
:100720001F910F91EF90DF90CF90BF90AF90089501
:10073000AF92BF92CF92DF92EF920F931F93DF930E
:10074000CF930F92CDB7DEB7C49A00E08FEF0E942F
:10075000B4000F5F0A30D1F7C498CC24DD245E01C9
:100760000894A11CB11C89E460E040E020E000E0B6
:10077000FBE1EF2E0E94BC00C5010E94F30008942B
:10078000C11CD11C8FE0C816D10419F089818823BF
:1007900051F78981882329F500E010E08FEF0E944E
:1007A000B40089830F5F1F4F8E3F29F48CEF90E0D8
:1007B0000E94520006C082E00030180779F782E0FC
:1007C00011C08FEF0E94B40089830F5F1F4F82E03A
:1007D00000301807B0F38DE091E00E94520080E0F5
:1007E00001C081E00F90CF91DF911F910F91EF90A9
:1007F000DF90CF90BF90AF900895AF92BF92CF920D
:10080000DF92EF920F931F93DF93CF930F92CDB7A9
:10081000DEB7C49A00E08FEF0E94B4000F5F0A3089
:10082000D1F7C498CC24DD245E010894A11CB11C2E
:1008300087E760E040E020E000E0ABE1EA2E0E94C4
:10084000BC00C5010E94F30083E760E040E020E0C7
:100850000E94BC00C5010E94F3000894C11CD11C79
:100860008FE0C816D10419F08981882309F789819E
:10087000882329F500E010E08FEF0E94B4008983FF
:100880000F5F1F4F8E3F29F48CE191E00E945200D0
:1008900006C082E00030180779F782E011C08FEFC0
:1008A0000E94B40089830F5F1F4F82E00030180759
:1008B000B0F38DE291E00E94520080E001C081E03F
:1008C0000F90CF91DF911F910F91EF90DF90CF901C
:1008D000BF90AF9008957F928F929F92AF92BF92F8
:1008E000CF92DF92EF92FF920F931F93DF93CF93FC
:1008F00000D000D00F92CDB7DEB7F82E792E4A8304
:100900005B836C837D8322E0C22ED12CCC0EDD1E56
:10091000198280E990E00E945200882499245E01A7
:100920000894A11CB11C87E760E040E020E000E0F3
:1009300095E6E92E0E94BC00C5010E94F30085EAFD
:1009400090E00E94520089E660E440E020E017E772
:10095000E12E0E94BC00C5010E94F3008AEA90E0EB
:100960000E9452008981882341F00894811C911CC7
:1009700080E0881682E09806B1F68FEA90E00E9447
:1009800052008981882309F04DC0C49A00E010E02C
:100990008FEF0E94B4000F5F1F4F0A301105C1F79F
:1009A000C49810E081E5F6016381428121810081D4
:1009B000B5E9EB2E0E94BC00C5010E94F3001F5F49
:1009C0001F3019F08981882369F78981882361F5AF
:1009D00000E010E08FEF0E94B4008E3F41F00F5F07
:1009E0001F4FFFE00F3F1F07A9F782E01EC0CF2C6B
:1009F000D72C00E010E08FEF0E94B400F601819345
:100A00006F010F5F1F4FF2E002311F07A1F78FEF59
:100A10000E94B4008FEF0E94B4008FEF0E94B400D8
:100A200080E003C084E001C081E00F900F900F9040
:100A30000F900F90CF91DF911F910F91FF90EF904A
:100A4000DF90CF90BF90AF909F908F907F90089550
:100A5000DF93CF93CDB7DEB7C251D2400FB6F89433
:100A6000DEBF0FBECDBF0E94A6000E9441000E94C3
:100A700095018823B9F48CE391E00E945200CE01E5
:100A8000019640E050E0BA010E946B04882329F0EF
:100A90008FE491E00E94520009C08CE591E00E9431
:100AA000520004C086E691E00E945200FFCFF89405
:020AB000FFCF76
:100AB2000A434D44305F73746172740A000A434DF5
:100AC20044305F656E640A000A434D44385F7374B4
:100AD2006172740A000A434D44385F656E640A000D
:100AE2000A434D4435352B41434D4434315F7374D1
:100AF2006172740A002A2A2A20002D2D3E20000A43
:100B0200434D4435352B41434D4434315F656E646A
:100B12000A000A434D4435385F73746172740A00E7
:100B22000A434D4435385F656E640A000A434944FE
:100B320020646174612073746172740A000A43490B
:100B420044206461746120656E640A000A43534460
:100B520020646174612073746172740A000A4353E1
:100B620044206461746120656E640A000A53435232
:100B720020646174612073746172740A000A5343C1
:100B820052206461746120656E640A00496E697462
:100B920069616C697A6174696F6E204F4B0A000A51
:100BA200526561645F4552524F520A000A526561B2
:100BB200645F4F6B0A00496E697469616C697A619E
:100BC20074696F6E206661696C0A000130313233DC
:0C0BD2003435363738396162636465667B
:00000001FF
