:100000000C9409020C9426020C9426020C942602ED
:100010000C9426020C9426020C9426020C942602C0
:100020000C9426020C9426020C9426020C942602B0
:100030000C9426020C9426020C9426020C942602A0
:100040000C9426020C9426020C9426020C94260290
:100050000C9426022046726565204D656D6F72799D
:100060003A2000546F74616C204D656D6F72793A5F
:1000700020004572726F7220696E20676574746922
:100080006E6720636C757374657200456E64206FD3
:100090006620436C757374657220436861696E00F5
:1000A0002046696C65204372656174656421002097
:1000B00046696C6520617070656E6465642100201E
:1000C0004E6F206672656520636C7573746572216E
:1000D0000020456E74657220746578742028656E02
:1000E000642077697468207E293A00204E6F20666C
:1000F00072656520636C75737465722100204372AC
:10010000656174696E672046696C652E2E0020203B
:1001100046696C6520616C726561647920657869F7
:100120007374696E672C20617070656E64696E67A8
:1001300020646174612E2E00496E76616C696420C2
:1001400066696C654E616D652E2E004572726F7228
:1001500020696E2067657474696E6720636C7573BF
:10016000746572004572726F7220696E20676574E3
:1001700074696E6720636C757374657200524F4FBB
:100180005400444952002020200046494C4500209C
:1001900020200046696C652064656C657465642187
:1001A0000044656C6574696E672E2E0046696C6547
:1001B00020646F6573206E6F742065786973742195
:1001C0000020496E76616C6964206F7074696F6E8F
:1001D00021002066696C65206E616D6520746F6F0B
:1001E000206C6F6E672E2E00456E746572206669F6
:1001F0006C65206E616D653A200052656164207304
:1002000075636365737366756C2100526561642064
:100210006661696C65642E2E00577269746520737F
:1002200075636365737366756C21005772697465D5
:10023000206661696C65642E2E0020456E746572BF
:1002400020746578742028456E642077697468206E
:100250007E293A00457261736564210045726173BD
:1002600065206661696C65642E2E00456E7465724A
:100270002074686520426C6F636B206E756D6265DB
:10028000722028303030302D39393939293A00463A
:1002900041543332206F7074696F6E7320646973D8
:1002A00061626C656421003E2053656C6563742057
:1002B0004F7074696F6E2028302D39293A20003E26
:1002C0002039203A2052656164205344204D656DE9
:1002D0006F72792043617061636974792028546F6B
:1002E00074616C2F4672656529003E2038203A20E3
:1002F00044656C6574652046696C65003E20372056
:100300003A2057726974652046696C65003E203654
:10031000203A20526561642046696C65003E2035B4
:10032000203A204765742066696C65206C69737497
:10033000003E2032203A20526561642073696E6766
:100340006C6520426C6F636B003E2031203A205771
:10035000726974652073696E676C6520426C6F63A7
:100360006B003E2030203A20457261736520426C5C
:100370006F636B7300507265737320616E79206BCD
:1003800065792E2E2E004641543332206E6F742034
:10039000666F756E6421002A2A2A2A2A2A2A2A2AA6
:1003A0002A2A2A2A2A2A2A2A2A2A2A2A2A2A2A2AAD
:1003B0002A2A2A2A2A2A2A2A2A2A002044686172FA
:1003C0006D616E692773206D6963726F53442043BA
:1003D0006172642054657374696E672E2E002A2A38
:1003E0002A2A2A2A2A2A2A2A2A2A2A2A2A2A2A2A6D
:1003F0002A2A2A2A2A2A2A2A2A2A2A2A2A2A2A2A5D
:100400002A00534420696E6974206661696C2E2E3F
:10041000000011241FBECFE5D8E0DEBFCDBF10E045
:10042000A0E6B0E0ECE4F5E202C005900D92AE3734
:10043000B107D9F712E0AEE7B0E001C01D92AD3AC6
:10044000B107E1F70E94B30D0C94A4120C940000C4
:10045000EF92FF920F931F9320919802309199028F
:10046000E0908200F090830000918400109185005C
:10047000625070408040904040E050E00E94631223
:100480009B01AC012E0D3F1D401F511FB901CA0138
:100490001F910F91FF90EF9008959F92AF92BF929E
:1004A000CF92DF92EF92FF920F93DF93CF93CDB76E
:1004B000DEB763970FB6F894DEBF0FBECDBF6B01FA
:1004C0007C01DE011196E0E6F0E083E101900D92FF
:1004D0008150E1F70CE08CE2982E053011F00930E4
:1004E00029F4FE01E00FF11D908201505E01A00E83
:1004F000B11CC701B6012AE030E040E050E00E94A4
:1005000082126063F5016083C701B6012AE030E022
:1005100040E050E00E948212C901DA016C017D01C5
:10052000C114D104E104F10411F00150B1F6CE017F
:1005300001960E94591263960FB6F894DEBF0FBE63
:10054000CDBFCF91DF910F91FF90EF90DF90CF90D3
:10055000BF90AF909F9008950F931F93DF93CF9319
:10056000CDB7DEB72B970FB6F894DEBF0FBECDBF69
:100570008C01582FA12FFC0140E080818E3219F4AC
:10058000493030F00EC04F5F31964C30B1F709C0A2
:10059000BE016F5F7F4F852F9A2F9C01F901DB0110
:1005A00008C088E391E00E944F1281E052C081911F
:1005B0008D938E2F851B8417D0F3842F9E012F5F80
:1005C0003F4F90E205C0F901E80FF11D90838F5F66
:1005D0008830C9F7242F2F5FAE014F5F5F4F30E2A5
:1005E000F801E20FF11D9081992359F0FA01E80F0B
:1005F000F11D90832F5F07C0FA01E80FF11D3083D2
:100600008F5F8B30C8F38F5F8B3050F39E01245F78
:100610003F4FFB019081892F81568A3110F490520F
:1006200090836F5F7F4F6217730799F720E030E088
:10063000AE014F5F5F4FF801E20FF31FDA01A20F27
:10064000B31F8C9180832F5F3F4F2B30310599F77B
:1006500080E02B960FB6F894DEBF0FBECDBFCF91D2
:10066000DF911F910F9108956F927F928F929F92C9
:10067000AF92BF92CF92DF92EF92FF920F931F93B0
:1006800060783B014C0122E0660C771C881C991CA9
:100690002A95D1F75B016C0150C0E090A202F09066
:1006A000A30220918A0030918B0000E010E080913D
:1006B0009A0290919B02A0919C02B0919D02E80E3B
:1006C000F91E0A1F1B1F40E050E0C401B3010E9445
:1006D0008212E20EF31E041F151FC801B7010E940B
:1006E0006A1160E0E62FF0E0EE0FFF1FEE0FFF1F34
:1006F000E856FF4F80819181A281B381BF7000973E
:10070000A105B10539F4A6019501260F311D411D42
:10071000511D25C06F5F603829F780E890E0A0E0A8
:10072000B0E0A80EB91ECA1EDB1E80E092E0A0E079
:10073000B0E0680E791E8A1E9B1E80918C009091FD
:100740008D00A0918E00B0918F00A816B906CA0640
:10075000DB0608F4A2CF20E030E040E050E0B90131
:10076000CA011F910F91FF90EF90DF90CF90BF9043
:10077000AF909F908F907F906F900895CF92DF926F
:10078000EF92FF920F931F93D82EC62E79018A0104
:1007900060919A0270919B0280919C0290919D02BF
:1007A0006F5F7F4F8F4F9F4F0E946A11809198001B
:1007B00090919900A0919A00B0919B00825592452A
:1007C000A146B14409F054C080917C0290917D0211
:1007D000A0917E02B0917F0282579247A144B14618
:1007E00009F046C08091940290919502A0919602E2
:1007F000B091970280509040A545BA4AC9F5CC20E7
:10080000A9F481E0D81649F4209180023091810248
:1008100040918202509183022FC020918402309136
:100820008502409186025091870226C021E0D216AF
:1008300049F4E0928002F0928102009382021093C8
:10084000830208C0E0928402F0928502009386023F
:100850001093870260919A0270919B0280919C0292
:1008600090919D026F5F7F4F8F4F9F4F0E94151198
:100870002FEF3FEF4FEF5FEFB901CA011F910F91CB
:10088000FF90EF90DF90CF900895DF92EF92FF926C
:100890000F931F93D82EDB01CA01E9E0B695A79507
:1008A00097958795EA95D1F75170607070704115F2
:1008B00051056105710519F4AC01BD0106C0AC011B
:1008C000BD014F5F5F4F6F4F7F4FDB01CA0133E0C8
:1008D000B695A795979587953A95D1F7477050703B
:1008E00060707070411551056105710519F47C0146
:1008F0008D0107C07C018D010894E11CF11C011DD4
:10090000111D8091A8028823D9F081E060E020E0E9
:1009100030E040E050E00E94BE03DD2039F49B014E
:10092000AC012E0D3F1D401F511F06C09B01AC01A5
:100930002E193F09400B510B81E061E00E94BE037C
:100940001F910F91FF90EF90DF9008952F923F92AB
:100950004F925F926F927F928F929F92AF92BF92CF
:10096000CF92DF92EF92FF920F931F9360908C00D3
:1009700070908D0080908E0090908F00E090980293
:10098000F0909902A0908A00B0908B008DE00E94B8
:1009900001128AE00E9401128DE00E9401128AE099
:1009A0000E94011283E690E00E944F1200E010E0E6
:1009B000CC24DD24C801B701A60195010E94631271
:1009C000A40193010E9463120E944D0281E060E045
:1009D00020E030E040E050E00E94BE031B012C010B
:1009E00080918C0090918D00A0918E00B0918F002D
:1009F00082159305A405B50508F07CC01092A802E5
:100A0000A0909000B0909100C0909200D090930080
:100A1000A2E0AA0CBB1CCC1CDD1CAA95D1F7222499
:100A200033242101662477244301E090A202F09050
:100A3000A30220918A0030918B0000E010E08091A9
:100A40009A0290919B02A0919C02B0919D02E80EA7
:100A5000F91E0A1F1B1F40E050E0C601B5010E94AD
:100A60008212E20EF31E041F151FC801B7010E9477
:100A70006A11A401930160E070E0FB01E856FF4FAA
:100A800080819181A281B381BF700097A105B105DA
:100A900029F40894211C311C411C511C2F5F3F4F2D
:100AA0004F4F5F4F80918C0090918D00A0918E00F0
:100AB000B0918F000296A11DB11D281739074A0772
:100AC0005B07C1F0C901861997096C5F7F4F02E08F
:100AD0006030700791F6E12CF2E0FF2E012D112D10
:100AE000AE0CBF1CC01ED11E8038910518F0390114
:100AF0004A019BCF8091A802882331F481E061E014
:100B0000A20191010E94BE0381E08093A802A090FF
:100B10009802B0909902E0908A00F0908B008DE0EE
:100B20000E9401128AE00E94011284E590E00E9476
:100B30004F1200E010E0CC24DD24C801B701A6016B
:100B400095010E946312A20191010E9463120E940A
:100B50004D028DE00E9401128AE00E9401121F9155
:100B60000F91FF90EF90DF90CF90BF90AF909F904C
:100B70008F907F906F905F904F903F902F9008954F
:100B80006F927F928F929F92AF92BF92CF92DF929D
:100B9000EF92FF920F931F9310929A0210929B0272
:100BA00010929C0210929D0260E070E080E090E064
:100BB0000E946A1180919800893E19F18B3E09F1DB
:100BC000809196029091970285559A4A09F0B0C09B
:100BD00060915E0270915F0280916002909161026B
:100BE00060939A0270939B0280939C0290939D0263
:100BF0000E946A1180919800893E19F08B3E09F09D
:100C000097C08091A3009091A40090938B00809353
:100C10008A008091A50090E09093990280939802B9
:100C2000A090A600B090A700B092A302A092A2024A
:100C30008091C4009091C500A091C600B091C700FA
:100C40008093900090939100A0939200B0939300B2
:100C5000E090A202F090A3026091A80070E080E012
:100C600090E02091BC003091BD004091BE005091B9
:100C7000BF000E9463123B014C0100E010E0809134
:100C8000B4009091B500A091B600B091B700E80E05
:100C9000F91E0A1F1B1FE60CF71C081D191DE09208
:100CA0008200F092830000938400109385002091CD
:100CB000980230919902CC24DD246091B8007091A3
:100CC000B9008091BA009091BB006A197B098C0928
:100CD0009D09661977098809990940E050E00E944A
:100CE0008212C901DA0180938C0090938D00A09349
:100CF0008E00B0938F0081E060E020E030E040E0C3
:100D000050E00E94BE0320918C0030918D004091F4
:100D10008E0050918F00261737074807590718F49F
:100D20001092A80203C081E08093A80280E001C075
:100D300081E01F910F91FF90EF90DF90CF90BF90D7
:100D4000AF909F908F907F906F9008954F925F9299
:100D50006F927F928F929F92AF92BF92CF92DF92CB
:100D6000EF92FF920F931F93CF93DF935B016C0180
:100D7000842E280139018091A2029091A302B2E051
:100D8000AA0CBB1CCC1CDD1CBA95D1F720918A00A3
:100D900030918B007C0100E010E080919A029091EC
:100DA0009B02A0919C02B0919D02E80EF91E0A1FC1
:100DB0001B1F40E050E0C601B5010E948212E20E06
:100DC000F31E041F151FC0918A00D0918B00992437
:100DD000C801B7010E946A11882321F093948AE028
:100DE0009816B1F79E0140E050E0C601B5010E949F
:100DF0008212FB01E856FF4F882031F420813181B7
:100E0000428153815F700CC0408251826282738242
:100E1000C801B7010E94151120E030E040E050E029
:100E2000B901CA01DF91CF911F910F91FF90EF900F
:100E3000DF90CF90BF90AF909F908F907F906F90FA
:100E40005F904F9008952F923F924F925F926F92D2
:100E50007F928F929F92AF92BF92CF92DF92EF924A
:100E6000FF920F931F93DF93CF93CDB7DEB72A97EF
:100E70000FB6F894DEBF0FBECDBF8D837F836E8328
:100E8000A0909000B0909100C0909200D0909300FC
:100E9000815088872091980230919902E0908200D9
:100EA000F09083000091840010918500C601B50187
:100EB000625070408040904040E050E00E946312D9
:100EC0001B012C012E0C3F1C401E511E6624772452
:100ED00043015FC1D401C301820D931DA41DB51D43
:100EE00089839A83AB83BC83BC01CD010E946A11C4
:100EF00040E2E42EF12C3DC18A0108561F4FF70154
:100F0000E856FF4FB0978081B096882341F49D81C9
:100F10009150923008F067C18CEA91E062C1853E41
:100F200009F423C1759780818F3009F41EC1A8850B
:100F3000A23008F0D2C020E030E0C801820F931F39
:100F4000AE81BF81A20FB31FFC0190818C919817D5
:100F500009F00BC1822F8F5F2F5F3F4F2B30310580
:100F600061F78B3009F001C1FD81F13009F03FC01C
:100F700089819A81AB81BC818093A9029093AA0256
:100F8000A093AB02B093AC02CA01A0E0B0E08093A2
:100F90007E0090937F00A0938000B0938100D801E1
:100FA00054968D919C915597A0E0B0E0DC01992773
:100FB0008827F801228D338D40E050E0822B932B5F
:100FC000A42BB52B8093A4029093A502A093A60214
:100FD000B093A702848D958DA68DB78D80938600E2
:100FE00090938700A0938800B0938900FEC08DE0A5
:100FF0000E9401128AE00E94011281EA91E00E949F
:101000004F128DE00E9401128AE00E9401128DE0D1
:101010000E9401128AE00E940112D80154968D911B
:101020009C915597A0E0B0E05C0199248824F801D8
:10103000828D938DA0E0B0E0882A992AAA2ABB2A43
:1010400085EE808369817A818B819C810E94151154
:10105000D8015C964D915D916D917C915F9780E098
:101060000E94450482E060E020E030E040E050E093
:101070000E94BE0386169706A806B90630F482E0E1
:1010800061E0A50194010E94BE03C501B40140E0E6
:1010900000E010E020E030E00E94A606F62EE72EE9
:1010A000D82EC92EC501B40141E000E010E020E0D7
:1010B00030E00E94A6068F2D9E2DAD2DBC2D4C013B
:1010C0005D01B7EF8B16BFEF9B06BFEFAB06BFE02E
:1010D000BB06D8F283E991E084C08DE00E94011242
:1010E0008AE00E9401121A8619860BC0E985E73052
:1010F00019F480E20E94011289859A8501969A87E7
:101100008987E985FA85E00FF11F80810E9401122D
:10111000A985BA851A9751F78FE891E00E944F127E
:10112000870108561F4F05511040F80180810B5E62
:101130001F4F8031B1F0883019F48DE791E013C072
:101140008AE891E00E944F1286E891E00E944F12D7
:10115000F801349760817181828193810E944D02F0
:1011600004C082E891E00E944F1280E290E0E80E15
:10117000F91EA7014052504080918A0090918B0047
:101180004817590708F4B8CE0894611C711C811CDB
:10119000911C8091980290919902A0E0B0E06816AD
:1011A00079068A069B0608F495CEC601B50140E093
:1011B00000E010E020E030E00E94A6065B016C0138
:1011C00097EFA9169FEFB9069FEFC9069FE0D906D2
:1011D00050F4A114B104C104D10409F05BCE84E63B
:1011E00091E00E944F1200E010E0C8012A960FB66D
:1011F000F894DEBF0FBECDBFCF91DF911F910F914D
:10120000FF90EF90DF90CF90BF90AF909F908F9026
:101210007F906F905F904F903F902F900895CF9365
:10122000DF93EC010E94AC02882321F482E0BE012E
:101230000E942307DF91CF9108952F923F924F9202
:101240005F926F927F928F929F92AF92BF92CF9256
:10125000DF92EF92FF920F931F93DF93CF9300D013
:1012600000D0CDB7DEB7E82E8B01CB010E94AC02D7
:10127000882311F082E09BC081E0B8010E9423071F
:101280009C01009709F492C081E0E81609F48FC030
:10129000D90154968D919C915597A0E0B0E04C01F6
:1012A00077246624F901828D938DA0E0B0E0682A4E
:1012B000792A8A2A9B2AD9015C968D919D910D905D
:1012C000BC91A02D89839A83AB83BC838DE00E945F
:1012D00001128AE00E9401128DE00E9401128AE050
:1012E0000E9401122224332421012091980230917E
:1012F0009902E0908200F0908300009184001091A8
:101300008500C401B301625070408040904040E0CD
:1013100050E00E9463125B016C01AE0CBF1CC01E4A
:10132000D11EEE2425C0C601B5016E0D711D811DB3
:10133000911D0E946A1100E010E0F801E856FF4F8D
:1013400080810E94011289819A81AB81BC8128161B
:1013500039064A065B0650F50894211C311C411CD5
:10136000511C0F5F1F4F92E00030190731F7E394D3
:1013700020919802309199028E2D90E08217930768
:1013800090F2C401B30140E000E010E020E030E062
:101390000E94A6063B014C0161157105810591056E
:1013A00009F0A3CF8BE491E00E944F1280E00F90F0
:1013B0000F900F900F90CF91DF911F910F91FF90A1
:1013C000EF90DF90CF90BF90AF909F908F907F90E5
:1013D0006F905F904F903F902F9008952F923F9283
:1013E0004F925F926F927F928F929F92AF92BF9235
:1013F000CF92DF92EF92FF920F931F93DF93CF93E1
:1014000000D000D000D0CDB7DEB79E838D8381E0C1
:101410006D817E810E941D09813009F057C08EE0E8
:1014200091E00E944F126090A4027090A5028090FB
:10143000A6029090A702AA24BB246501C401B301AF
:1014400040E000E010E020E030E00E94A6066F3FA0
:101450002FEF72072FEF82072FE0920741F00894D9
:10146000A11CB11CC11CD11C3B014C01E7CF209138
:1014700098023091990260918A0070918B00E090FF
:101480008A00F0908B0080E090E040E050E00E9405
:101490006312A60195010E9463129B01AC01609149
:1014A0008600709187008091880090918900621B6E
:1014B000730B840B950B00E010E0A80197010E94CC
:1014C0008212B22E21E0AA24A39458C0823009F4DB
:1014D00000C38DE00E9401128AE00E9401128DEF8C
:1014E00090E00E944F1282E060E020E030E040E0B7
:1014F00050E00E94BE039B01AC0180918C00909152
:101500008D00A0918E00B0918F0082179307A407E1
:10151000B50740F4209190003091910040919200E5
:1015200050919300CA01B9010E9434033B014C0160
:10153000611571058105910549F48DE00E94011244
:101540008AE00E9401128BEE90E0C1C241E00FEFF1
:101550001FEF2FEF3FE00E94A606C401AA27BB277A
:101560009C838B837A826982109286001092870016
:10157000109288001092890020E0AA242B2C33249A
:1015800044245524C401B30162507040804090400F
:101590002223E9F12091980230919902E090820093
:1015A000F09083000091840010918500E20CF31C00
:1015B000041D151D40E050E00E946312E60EF71E68
:1015C000081F191FE0929400F09295000093960076
:1015D000109397006091940070919500809196000F
:1015E000909197000E946A1120918A0030918B009F
:1015F00040E050E060918600709187008091880003
:10160000909189000E9482128B01EB2C1FC02091C7
:10161000980230919902E0908200F090830000914E
:1016200084001091850040E050E00E946312E60EB5
:10163000F71E081F191FE0929400F0929500009386
:10164000960010939700EE2400E010E08DE00E94D9
:1016500001128AE00E94011281ED90E00E944F1277
:101660000E94FC11F82E88E0F81609F50115110505
:10167000B9F30E94011280E20E94011288E00E94E8
:101680000112015010408091860090918700A09136
:101690008800B09189000197A109B1098093860063
:1016A00090938700A0938800B0938900D9CF8F2DA5
:1016B0000E940112F801E856FF4FF0820F5F1F4FA2
:1016C0008091860090918700A0918800B091890058
:1016D0000196A11DB11D8093860090938700A09371
:1016E0008800B09389009DE0F916E9F48AE00E9431
:1016F0000112F801E856FF4F8AE080830F5F1F4F09
:101700008091860090918700A0918800B091890017
:101710000196A11DB11D8093860090938700A09330
:101720008800B0938900A2E000301A0749F5609163
:1017300094007091950080919600909197000E947E
:101740001511E39420919802309199028E2D90E02A
:1017500082179307D1F08091940090919500A09109
:101760009600B09197000196A11DB11D8093940041
:1017700090939500A0939600B093970000E010E03E
:10178000BEE7FB1609F06CCF05C0EEE7FE16B9F513
:1017900000E010E08091860090918700A091880081
:1017A000B09189000197A109B109809386009093B7
:1017B0008700A0938800B0938900B8016150704001
:1017C00006C0FB01E856FF4F10826F5F7F4FF2E0CB
:1017D00060307F07B0F36091940070919500809124
:1017E0009600909197000E94151182E061E0A4019B
:1017F00093010E94BE03AA2009F46FC028C0C4014F
:10180000B3010E9434036B017C01611571058105F0
:10181000910549F48DE00E9401128AE00E940112B4
:101820008FEB90E054C1C401B30141E09701860100
:101830000E94A606C701B60141E00FEF1FEF2FEF90
:101840003FE00E94A60620E0360147019BCE609152
:10185000A9027091AA028091AB029091AC020E9401
:101860006A11E0917E00F0917F00E856FF4F2091D1
:101870008600309187004091880050918900848DC6
:10188000958DA68DB78D79018A01E81AF90A0A0BA0
:101890001B0B248F358F468F578F6091A902709153
:1018A000AA028091AB029091AC020E94151181E0D6
:1018B000B801A7010E9445048DE00E9401128AE050
:1018C0000E9401128FEA90E00E944F128DE00E9468
:1018D00001128AE00E940112FCC08090900090905A
:1018E0009100A0909200B090930022242091980241
:1018F00030919902E0908200F09083000091840082
:1019000010918500C501B401625070408040904044
:1019100040E050E00E9463122B013C014E0C5F1C22
:10192000601E711E33248AC073016201C30CD11C76
:10193000E11CF11CC701B6010E946A1100E210E02F
:1019400072C0AF0148565F4F222019F0DA011C9295
:10195000C0C0F801E858FF4FE081EE2319F0E53EE2
:1019600009F05FC020E030E0BA01620F731FAD8163
:10197000BE81A20FB31F8C91FB0180832F5F3F4F6D
:101980002B30310589F7F801E856FF4F759720E2B3
:1019900021931192119284E896E981939193A7E3A0
:1019A000BAE3A193B193B183A083349681939193C9
:1019B000B183A08334978B819C81918380833696F9
:1019C000A981BA81A193B1938091860090918700FB
:1019D000A0918800B091890080839183A283B38312
:1019E000C701B6010E9415118DE00E9401128AE024
:1019F0000E9401128DE00E9401128AE00E940112F1
:101A000080EA90E00E944F1240918600509187003A
:101A1000609188007091890081E00E944504222431
:101A20002394005E1F4F80918A0090918B00F801F3
:101A3000B097E817F90708F484CF339420919802FF
:101A400030919902832D90E08217930708F46CCFB0
:101A5000C501B40140E000E010E020E030E00E9469
:101A6000A6066B017C01673FBFEF7B07BFEF8B07CB
:101A7000BFE09B0710F16F3FEFEF7E07EFEF8E07A0
:101A8000EFE09E07B9F4C501B4010E9434036B0175
:101A90007C01C501B40141E0970186010E94A606C0
:101AA000C701B60141E00FEF1FEF2FEF3FE00E94AB
:101AB000A60603C08BE890E00AC046015701C11496
:101AC000D104E104F10409F011CF82E790E00E9413
:101AD0004F1226960FB6F894DEBF0FBECDBFCF9142
:101AE000DF911F910F91FF90EF90DF90CF90BF900B
:101AF000AF909F908F907F906F905F904F903F90AE
:101B00002F9008951BBA1ABA8FEE88BB8FEB87BB54
:101B100015BA14BA12BA8EEF81BB08951AB81BB861
:101B200086E880BD89E189B910BC88E18AB9089549
:101B3000F8941BBA1ABA8FEE88BB8FEB87BB15BA25
:101B400014BA12BA8EEF81BB0E94ED111AB81BB8FD
:101B500086E880BD89E189B910BC88E18AB915BEE3
:101B60001BBE19BE0895AF92BF92CF92DF92EF9243
:101B7000FF920F931F93DF93CF93CDB7DEB72E97CE
:101B80000FB6F894DEBF0FBECDBF88EE93E028EC11
:101B900030E0F9013197F1F70197D9F70E94980DDC
:101BA000929A8DE00E9401128AE00E9401128DE05B
:101BB0000E9401128AE00E9401128EED93E00E94C1
:101BC0004F128DE00E9401128AE00E9401128BEBFD
:101BD00093E00E944F128DE00E9401128AE00E9461
:101BE000011287E993E00E944F128DE00E940112DA
:101BF0008AE00E9401120E94A21180E58DB9709ABC
:101C000080ED97E00197F1F70E94C005882319F451
:101C1000EE24E39405C086E893E00E944F12EE2480
:101C20006E010894C11CD11CEEE0AE2EB12CAC0E9E
:101C3000BD1E8DE00E9401128AE00E94011285E71C
:101C400093E00E944F128DE00E9401128AE00E94F0
:101C500001120E94FC118DE00E9401128AE00E9494
:101C6000011282E693E00E944F128DE00E94011261
:101C70008AE00E94011289E493E00E944F128DE0F5
:101C80000E9401128AE00E94011281E393E00E9407
:101C90004F128DE00E9401128AE00E9401128DE134
:101CA00093E00E944F128DE00E9401128AE00E9490
:101CB00001128DE093E00E944F128DE00E9401120C
:101CC0008AE00E9401128CEF92E00E944F128DE098
:101CD0000E9401128AE00E9401128AEE92E00E94A4
:101CE0004F128DE00E9401128AE00E9401128FEBD8
:101CF00092E00E944F128DE00E9401128AE00E9441
:101D000001128DE00E9401128AE00E94011287EA0E
:101D100092E00E944F120E94FC11F82E0E940112C4
:101D20008F2D8553853098F4EE2089F48DE00E9444
:101D300001128AE00E9401128DE00E9401128AE0E5
:101D40000E9401128FE892E00E944F1272CF8F2DF5
:101D50008053853008F0A2C08DE00E9401128AE015
:101D60000E9401128DE00E9401128AE00E9401127D
:101D70008BE692E00E944F120E94FC11082F0E94F5
:101D8000011210E00F70107088EE93E09C01029F2A
:101D9000C001039F900D129F900D1124AA2797FD5B
:101DA000A095BA2F8093940090939500A0939600ED
:101DB000B09397000E94FC11082F0E9401122091FD
:101DC000940030919500409196005091970010E05A
:101DD0000F70107084E690E0BC01069FC001079F61
:101DE000900D169F900D1124AA2797FDA095BA2F4C
:101DF000820F931FA41FB51F8093940090939500AA
:101E0000A0939600B09397000E94FC11082F0E94A7
:101E100001122091940030919500409196005091CC
:101E2000970010E00F701070C80173E0880F991FC1
:101E30007A95E1F7000F111F800F911FAA2797FDD8
:101E4000A095BA2F820F931FA41FB51F80939400F3
:101E500090939500A0939600B09397000E94FC1178
:101E6000182F0E9401128091940090919500A091EA
:101E70009600B09197001F70810F911DA11DB11D9B
:101E80008093940090939500A0939600B093970050
:101E90008DE00E9401128AE00E94011281E090E030
:101EA000A0E0B0E080939E0290939F02A093A002D6
:101EB000B093A10275E3F71609F4BAC07F1560F07C
:101EC00081E3F81699F122E3F21609F47BC030E3BE
:101ED000F31609F019C109C068E36F1508F0B4C022
:101EE00079E3F71609F010C10CC16091940070916C
:101EF0009500809196009091970020919E023091DC
:101F00009F024091A0025091A1020E94D410182F6C
:101F10008DE00E9401128AE00E940112112319F043
:101F20008CE592E049C084E592E046C08DE00E94D5
:101F300001128AE00E9401128AE392E00E944F128D
:101F400000E010E00E94FC11F82E0E940112F8013E
:101F5000E856FF4FF0820F5F1F4F8DE0F81651F4E7
:101F60008AE00E940112F801E856FF4F8AE0808360
:101F70000F5F1F4F22E00030120719F03EE7F31603
:101F800009F760919400709195008091960090916E
:101F900097000E941511182F8DE00E9401128AE00F
:101FA0000E9401128DE00E9401128AE00E9401123B
:101FB000112329F08BE292E00E944F12BBC089E10D
:101FC00092E0FACF60919400709195008091960014
:101FD000909197000E946A11182F8DE00E940112C3
:101FE0008AE00E940112112319F08BE092E0E4CF05
:101FF00000E010E0F801E856FF4F80818E3749F08D
:1020000080810E9401120F5F1F4F62E000301607AF
:1020100089F78DE00E9401128AE00E9401128DE092
:102020000E9401128AE00E9401128AEF91E0C4CF5F
:102030008DE00E9401128AE00E94011280E060E0BF
:1020400070E00E94230776C08DE00E9401128AE0B2
:102050000E9401128DE00E9401128AE00E9401128A
:1020600088EE91E00E944F12F6011192EA15FB05ED
:10207000E1F700E010E00E94FC11982F8D3029F16B
:10208000883079F401151105B1F388E00E9401123E
:1020900080E20E94011288E00E940112015010406B
:1020A000EACF80528F3538F7892F9E870E94011220
:1020B000F601E00FF11F9E8590830F5F1F4F0D30DB
:1020C0001105C9F682ED91E077CF0D30110590F53D
:1020D0008DE00E9401128AE00E94011276E3F71659
:1020E00029F480E0B6010E941D0924C087E3F81698
:1020F00021F4C6010E94EE091DC0C6010E940F090D
:1021000019C00E94A60416C08DE00E9401128AE048
:102110000E9401128DE00E9401128AE00E940112C9
:1021200081EC91E00E944F128DE00E9401128AE042
:102130000E9401128DE00E9401128AE00E940112A9
:1021400078CDEF92FF920F931F937A018B01C19884
:1021500080640E94F111812F9927AA27BB270E9432
:10216000F111C801AA27BB270E94F111BB27A12F9B
:10217000902F8F2D0E94F1118E2D0E94F11185E973
:102180000E94F11110E002C0115029F00E94F611D6
:10219000082F8F3FC9F30E94F611C19A802F1F911B
:1021A0000F91FF90EF900895AF92BF92CF92DF9280
:1021B000EF92FF920F931F937B018C0159016A01EB
:1021C000AB01BC01E9E0440F551F661F771FEA957C
:1021D000D1F780E20E94A1108823F1F40894E1086D
:1021E000F10801091109EA0CFB1C0C1D1D1D39E049
:1021F000EE0CFF1C001F111F3A95D1F781E2B801C8
:10220000A7010E94A110882339F486E240E050E043
:1022100060E070E00E94A1101F910F91FF90EF907D
:10222000DF90CF90BF90AF900895CF93DF93AB0135
:10223000BC01F9E0440F551F661F771FFA95D1F7CF
:1022400088E10E94A110882311F0982F3FC0C19807
:102250008EEF0E94F111C0E0D0E0FE01E856FF4F82
:1022600080810E94F111219682E0C030D807A9F741
:102270008FEF0E94F1118FEF0E94F1110E94F61171
:10228000982F8F71853041F0C19A20C08FEFCF3FDA
:10229000D80791F0219602C0C0E0D0E00E94F6116C
:1022A0008823A1F3C19A8FEF0E94F111C19808C051
:1022B0008FEFCF3FD80719F4C19A91E007C021965C
:1022C0000E94F6118823A1F3C19A90E0892FDF9133
:1022D000CF9108951F93CF93DF93AB01BC01A9E089
:1022E000440F551F661F771FAA95D1F781E10E9401
:1022F000A110182F882309F5C198C0E0D0E005C0CF
:10230000219719F4C19A11E018C00E94F6118E3F6E
:10231000B9F7C0E0D0E00E94F611FE01E856FF4F89
:102320008083219682E0C030D807A9F70E94F61179
:102330000E94F6110E94F611C19A812FDF91CF9170
:102340001F9108950F931F93C19800E010E08FEF45
:102350000E94F1111F5F1A30D1F780E040E050E099
:1023600060E070E00E94A1100F5F0F3F29F482E04F
:1023700094E00E944F121BC0813041F7C19A8FEF49
:102380000E94F1118FEF0E94F11110E081E040E016
:1023900050E060E070E00E94A11081E040E050E079
:1023A00060E070E00E94A1101F5F1F3F11F481E008
:1023B00011C0882359F78BE340E050E060E070E003
:1023C0000E94A11080E140E052E060E070E00E94D5
:1023D000A11080E01F910F91089582E58DB91EB87C
:1023E00008958FB9779BFECF8FB108958FEF8FB986
:1023F000779BFECF8FB108955F9BFECF8BB18CB1E1
:1024000008955D9BFECF8CB90895DF93CF93CDB730
:10241000DEB72B970FB6F894DEBF0FBECDBF81306D
:1024200011F494E005C0823011F498E001C092E00C
:10243000DE011196E3E7F0E08BE001900D92815010
:10244000E1F79E012E5F3F4F842F8F70E92FF0E060
:102450008A3020F4E20FF31F805D03C0E20FF31F08
:10246000895C8083915019F4FE0131960CC084E0A0
:1024700076956795579547958A95D1F7E5CF5D9BFA
:10248000FECF31968CB980818823C9F72B960FB681
:10249000F894DEBF0FBECDBFCF91DF910895FC0150
:1024A00004C05D9BFECF31968CB984918823C9F717
:1024B0000895FC0104C05D9BFECF31968CB98081EC
:1024C0008823C9F70895629FD001739FF001829F0E
:1024D000E00DF11D649FE00DF11D929FF00D839FB3
:1024E000F00D749FF00D659FF00D9927729FB00D50
:1024F000E11DF91F639FB00DE11DF91FBD01CF0163
:1025000011240895A1E21A2EAA1BBB1BFD010DC0C8
:10251000AA1FBB1FEE1FFF1FA217B307E407F50793
:1025200020F0A21BB30BE40BF50B661F771F881F6F
:10253000991F1A9469F760957095809590959B0105
:0C254000AC01BD01CF010895F894FFCF5D
:10254C0020202020202020202020202020427974B0
:0E255C006573003078202020202020202000F1
:00000001FF
