:1000000009C008C007C006C005C004C018C002C0AF
:1000100001C000C00FE90DBF07E007BB02E00FBD44
:1000200004E003BF03EA06BF04E009BF03E007B929
:1000300000E01BE526E83FE67894FFCFFECF413095
:1000400021F4002E142E42E00FC0423021F4012E84
:10005000142E44E009C0443021F4022E142E48E04E
:1000600003C0032E142E41E001D018950F93C198C0
:1000700000E1000C111CC29810F0C09801C0C09A99
:0C008000C29A0A95B1F7C19A0F91089539
:00000001FF
