:1000000012C017C016C015C014C013C012C011C052
:1000100010C00FC00EC00DC00CC00BC00AC009C07C
:1000200008C007C006C011241FBECFEDCDBF35D11B
:1000300045C1E6CF87B38A6187BB87B3816187BB40
:100040008E9ABA98C19AC09A88B3877E88BBC298A4
:1000500096980895C19820E1C49897FF02C0C39A6A
:1000600001C0C398880F991F32E43A95F1F700C098
:10007000C49A32E43A95F1F700C0215069F7C19A69
:1000800082E48A95F1F700C00895C49AC09822E4EA
:100090002A95F1F700C0C09A97E0B29B02C0816038
:1000A00001C08E7F880FC49822E42A95F1F700C022
:1000B000C49A22E42A95F1F700C0915071F7B299E1
:1000C00081600895811168C084EF91E0969AE7EE0F
:1000D000F3E03197F1F700C000009698E7EEF3E007
:1000E0003197F1F700C000000197009779F7FFE71B
:1000F0002AE186E0F15020408040E1F700C0000096
:1001000084EF91E0969AE7EEF3E03197F1F700C0C3
:1001100000009698E7EEF3E03197F1F700C0000099
:100120000197009779F7FFE72AE186E0F150204038
:100130008040E1F700C0000084EF91E0969AE7EE7E
:10014000F3E03197F1F700C000009698E7EEF3E096
:100150003197F1F700C000000197009779F7FFE7AA
:100160002AE186E0F15020408040E1F700C0000025
:1001700083E490E0969AE7E9FAE33197F1F700C05B
:1001800000009698E7E9FAE33197F1F700C0000024
:100190000197009779F70895813009F068C084EFDE
:1001A00091E0969AE7EEF3E03197F1F700C0000096
:1001B0009698E7EEF3E03197F1F700C00000019761
:1001C000009779F7FFE72AE186E0F1502040804070
:1001D000E1F700C0000084EF91E0969AE7EEF3E0CB
:1001E0003197F1F700C000009698E7EEF3E0319701
:1001F000F1F700C000000197009779F7FFE72AE1C7
:1002000086E0F15020408040E1F700C0000084EF1C
:1002100091E0969AE7EEF3E03197F1F700C0000025
:100220009698E7EEF3E03197F1F700C000000197F0
:10023000009779F7FFE72AE186E0F15020408040FF
:10024000E1F700C0000082E096E0969AE9E8F2E06B
:100250003197F1F700C000009698E9E8F2E0319795
:10026000F1F700C000000197009779F708958230F8
:1002700099F484EF91E0969AE7EEF3E03197F1F785
:1002800000C000009698E7EEF3E03197F1F700C068
:1002900000000197009779F70895CCDE80E090E0A8
:1002A000EC012196D7DE2FE784E89EE121508040C3
:1002B0009040E1F700C00000CE01F2CFF894FFCFEC
:00000001FF
