:100000000C945C000C945C000C945C000C945C0000
:100010000C9466000C945C000C945C000C945C00E6
:100020000C945C000C945C000C945C000C945C00E0
:100030000C945C000C945C000C945C000C945C00D0
:100040000C945C000C945C000C945C000C945C00C0
:100050000C945C0004E00EBF0FE50DBFBC9ABF9A84
:10006000BD9A6C9A6E9A709A02B5086002BD05B589
:10007000046005BD09B7006409BFF8940895FFCF77
:100080000197F1F70000000000000895AF93BF93BF
:100090000F931F93C49811E0A1E0B0E0103031F04D
:1000A0000E910FB9779BFECF1A95F8CFC49A1F9186
:1000B0000F91BF91AF9108950E942A00A0E0B0E097
:0E00C00000E00C930E9446000E943F0018953D
:00000001FF
