:100000000C942A000C9447000C9447000C94470071
:100010000C9447000C9447000C9447000C94470044
:100020000C9447000C9447000C9447000C94470034
:100030000C9447000C9447000C9447000C94470024
:100040000C9447000C9447000C9447000C94470014
:100050000C94470011241FBECFE5D4E0DEBFCDBF16
:1000600011E0A0E6B0E0ECE6F4E002C005900D92ED
:10007000A63BB107D9F713E0A6EBB1E001C01D9292
:10008000A63BB107E1F70E94EC010C9434020C94FA
:10009000000010BC82E089B996E890BD98E19AB959
:1000A0008BB908955D9BFECF8CB908955F9BFECF01
:1000B0008CB108951F93CF93DF93EC0110E003C040
:1000C0000E9452001F5FFE01E10FF11D8081882315
:1000D000B9F7DF91CF911F91089598E087FD02C095
:1000E000C59801C0C59AC79A0000C798915011F0F1
:1000F000880FF4CF089598E080E0C79A880FB699EA
:100100008160C79800009150C1F70895DF92EF9287
:10011000FF920F931F93DF93CF9300D00F92CDB731
:10012000DEB72B834A8369830E946D006981862F25
:100130000E946D004A81842F0E946D002B81822FC6
:100140000E946D00802F0E946D008E2D0E946D0018
:10015000EE24FF2487010E947B00D82E0894E11C26
:10016000F11C011D111D87FF0AC08FEFE8168FEFEC
:10017000F80680E0080780E0180769F709C0EFEF8C
:10018000EE16EFEFFE06E0E00E07E0E01E0724F0BB
:1001900080E690E00E945A008D2D0F900F900F90F6
:1001A000CF91DF911F910F91FF90EF90DF90089515
:1001B000EF920F931F93B39922C01AE08FEF0E9422
:1001C0006D001150D9F7C49880E460E040E020E071
:1001D00000E095E9E92E0E948600813091F48FEFCE
:1001E0000E946D0088E460E040E020E00E9486000C
:1001F000882349F088E690E00E945A0004C081E01C
:1002000003C083E001C084E01F910F91EF90089537
:10021000CF92DF92EF92FF920F931F93DF93CF93D2
:1002200000D00F92CDB7DEB7D82EC92EB3995FC0DC
:100230008FEF2B834A8369830E946D008FEF0E94AA
:100240006D008FEF0E946D008FEF0E946D0081E5C1
:1002500069814A812B8135E9E32E0E94860088233B
:1002600019F083E790E029C08FEF0E946D008FEFB7
:100270000E946D00EE24FF2487010E947B000894F9
:10028000E11CF11C011D111D8E3F51F09FEFE9167D
:100290009FEFF90690E0090790E0190771F709C090
:1002A000EFEFEE16EFEFFE06E0E00E07E0E01E07D0
:1002B00044F00E94520084E890E00E945A0085E0D9
:1002C00017C0C601E92EFC2C00E010E00E947B0064
:1002D000F70181937F010F5F1F4FF2E000301F078E
:1002E000A9F70E947B000E947B0080E001C081E0B2
:1002F0000F900F900F90CF91DF911F910F91FF9072
:10030000EF90DF90CF900895EF92FF920F931F939D
:10031000CF93DF93182FF92EB39952C0B29952C0E0
:1003200088E555E9E52E0E948600882319F085E9C5
:1003300090E042C08FEF0E946D008EEF0E946D0032
:10034000E12EC0E0D0E0F70181917F010E946D00B5
:100350002196F2E0C030DF07B1F78FEF0E946D0009
:100360008FEF0E946D000E947B008570853019F030
:1003700087EA90E021C0EE24FF2487010E947B00E1
:100380000894E11CF11C011D111D8F3F51F08FEFEE
:10039000E8168FEFF80680E0080780E0180771F78D
:1003A00009C0EFEFEE16EFEFFE06E0E00E07E0E02B
:1003B0001E0754F089EB90E00E945A0086E005C0C9
:1003C00081E003C082E001C080E0DF91CF911F9106
:1003D0000F91FF90EF9008950F93CF93DF938CE7E9
:1003E00088BB80EB87BB0E9449000E94D80088230D
:1003F00041F58BEC90E00E945A0086EB91E060E0C2
:1004000040E020E000E00E940801882371F481EFC1
:1004100090E00E945A00C6EBD1E089910E94520000
:1004200083E0C63BD807C9F71EC0813029F487E1B5
:1004300091E00E945A0017C08FE391E00E945A0099
:1004400012C0813029F488E591E00E945A000BC067
:10045000833029F482E891E00E945A0004C08CE9BC
:0C04600091E00E945A00FFCFF894FFCFFB
:10046C003078666666660A00496E69742E48657255
:10047C00650A00526561642E49276D2068657265B6
:10048C00310D0A00526561642E49276D2068657232
:10049C0065320D0A0057726974652E49276D206804
:1004AC00657265310D0A0057726974652E49276DA6
:1004BC002068657265320D0A0057726974652E49A1
:1004CC00276D2068657265330D0A0073645F636184
:1004DC0072645F696E69743A20696E697469616CE3
:1004EC00697A6174696F6E207375636365730D0A45
:1004FC0000726561645F626C6F636B3A2064617457
:10050C006120626C6F636B2072656164207375632C
:10051C006365733A0D0A00726561645F626C6F63A8
:10052C006B3A206661696C2C206E6F20636172647B
:10053C0020696E2074686520736C6F740D0A0072EC
:10054C006561645F626C6F636B3A20434D44313775
:10055C00206661696C0D0A0073645F636172645F8D
:10056C00696E69743A206661696C2C206E6F206329
:10057C0061726420696E2074686520736C6F740DF1
:10058C000A0073645F636172645F696E69743A2018
:10059C00434D4430206661696C0D0A0073645F63DF
:1005AC006172645F696E69743A20434D4431206610
:0605BC0061696C0D0A00EC
:00000001FF
