:100000000C942A000C9447000C9447000C94470071
:100010000C9447000C9447000C9447000C94470044
:100020000C9447000C9447000C9447000C94470034
:100030000C9447000C9447000C9447000C94470024
:100040000C9447000C9447000C9447000C94470014
:100050000C94470011241FBECFE5D4E0DEBFCDBF16
:1000600011E0A0E6B0E0EAEBF4E002C005900D92EA
:10007000AC3AB107D9F713E0ACEAB1E001C01D9288
:10008000AC3AB107E1F70E9413020C945B020C94A6
:10009000000010BC82E089B996E890BD98E19AB959
:1000A0008BB908955D9BFECF8CB908955F9BFECF01
:1000B0008CB108951F93CF93DF93EC0110E003C040
:1000C0000E9452001F5FFE01E10FF11D8081882315
:1000D000B9F7DF91CF911F91089598E087FD02C095
:1000E000C59801C0C59AC79A0000C798915011F0F1
:1000F000880FF4CF089598E080E0C79A880FB699EA
:100100008160C79800009150C1F70895DF92EF9287
:10011000FF920F931F93DF93CF9300D00F92CDB731
:10012000DEB72B834A8369830E946D006981862F25
:100130000E946D004A81842F0E946D002B81822FC6
:100140000E946D00802F0E946D008E2D0E946D0018
:10015000EE24FF2487010E947B00D82E0894E11C26
:10016000F11C011D111D87FF0AC08FEFE8168FEFEC
:10017000F80680E0080780E0180769F709C0EFEF8C
:10018000EE16EFEFFE06E0E00E07E0E01E0724F0BB
:1001900080E690E00E945A008D2D0F900F900F90F6
:1001A000CF91DF911F910F91FF90EF90DF90089515
:1001B000AF92BF92CF92DF92EF920F931F93B399BA
:1001C00041C01AE08FEF0E946D001150D9F7C4981A
:1001D00080E460E040E020E000E035E9E32E0E94AA
:1001E0008600813089F58FEF0E946D00AA24BB2420
:1001F000650181E460E040E020E000E095E9E92E5F
:100200000E948600182F8FEF0E946D000894A11C99
:10021000B11CC11CD11C112351F08FEFA8168FEF18
:10022000B80680E0C80680E0D80619F709C08FEF4D
:10023000A8168FEFB80680E0C80680E0D80634F034
:1002400084E005C081E003C083E001C080E01F912D
:100250000F91EF90DF90CF90BF90AF900895CF9225
:10026000DF92EF92FF920F931F93DF93CF9300D013
:100270000F92CDB7DEB7D82EC92EB3995FC08FEFDE
:100280002B834A8369830E946D008FEF0E946D006B
:100290008FEF0E946D008FEF0E946D0081E56981F4
:1002A0004A812B8155E9E52E0E948600882319F0AA
:1002B00088E690E029C08FEF0E946D008FEF0E94CA
:1002C0006D00EE24FF2487010E947B000894E11C4E
:1002D000F11C011D111D8E3F51F09FEFE9169FEF9C
:1002E000F90690E0090790E0190771F709C0EFEFF0
:1002F000EE16EFEFFE06E0E00E07E0E01E0744F02A
:100300000E94520089E790E00E945A0085E017C0E1
:10031000C601E92EFC2C00E010E00E947B00F701F2
:1003200081937F010F5F1F4FF2E000301F07A9F795
:100330000E947B000E947B0080E001C081E00F9062
:100340000F900F90CF91DF911F910F91FF90EF9041
:10035000DF90CF900895EF92FF920F931F93CF936A
:10036000DF93182FF92EB39952C0B29952C088E585
:1003700075E9E72E0E948600882319F08AE890E04C
:1003800042C08FEF0E946D008EEF0E946D00E12E43
:10039000C0E0D0E0F70181917F010E946D002196BD
:1003A000F2E0C030DF07B1F78FEF0E946D008FEFF2
:1003B0000E946D000E947B008570853019F08CE9E9
:1003C00090E021C0EE24FF2487010E947B00089466
:1003D000E11CF11C011D111D8F3F51F08FEFE8163C
:1003E0008FEFF80680E0080780E0180771F709C072
:1003F000EFEFEE16EFEFFE06E0E00E07E0E01E077F
:1004000054F08EEA90E00E945A0086E005C081E038
:1004100003C082E001C080E0DF91CF911F910F9176
:10042000FF90EF9008950F93CF93DF938CE788BBF5
:1004300080EB87BB0E9449000E94D800882341F5C9
:1004400080EC90E00E945A008CEA91E060E040E08D
:1004500020E000E00E942F01882371F486EE90E0F6
:100460000E945A00CCEAD1E089910E94520083E0B8
:10047000CC3AD807C9F71EC0813029F48CE091E04E
:100480000E945A0017C084E391E00E945A0012C0F3
:10049000813029F48DE491E00E945A000BC0833032
:1004A00029F487E791E00E945A0004C081E991E0B5
:0A04B0000E945A00FFCFF894FFCF1E
:1004BA003078666666660A00526561642E49276D61
:1004CA002068657265310D0A00526561642E4927FC
:1004DA006D2068657265320D0A0057726974652E5F
:1004EA0049276D2068657265310D0A005772697473
:1004FA00652E49276D2068657265320D0A005772AC
:10050A006974652E49276D2068657265330D0A0086
:10051A0073645F636172645F696E69743A20696EBD
:10052A00697469616C697A6174696F6E2073756345
:10053A006365730D0A00726561645F626C6F636B59
:10054A003A206461746120626C6F636B207265612A
:10055A0064207375636365733A0D0A00726561649A
:10056A005F626C6F636B3A206661696C2C206E6FF8
:10057A00206361726420696E2074686520736C6FF1
:10058A00740D0A00726561645F626C6F636B3A2076
:10059A00434D443137206661696C0D0A0073645F0C
:1005AA00636172645F696E69743A206661696C2C72
:1005BA00206E6F206361726420696E207468652002
:1005CA00736C6F740D0A0073645F636172645F69B0
:1005DA006E69743A20434D4430206661696C0D0A95
:1005EA000073645F636172645F696E69743A204381
:0C05FA004D4431206661696C0D0A000060
:00000001FF
