:100000000C9455000C9455000C9455000C9455001C
:100010000C945B000C9455000C9455000C94550006
:100020000C9455000C9455000C9455000C945500FC
:100030000C9455000C9455000C9455000C945500EC
:100040000C9455000C9455000C9455000C945500DC
:100050000C94550004E00EBF0FE50DBF8A9A8B98F3
:10006000929A02B5086002BD05B5046000600160A7
:1000700005BD09B7006409BF0DE410E010BD09B962
:1000800008E10AB906E800BD78940895FFCF01970A
:10009000F1F700000000000008955D9BFECF0CB951
:1000A00008955F9BFECF0CB108950E942A0000E0E6
:1000B0000F930E9446000F910E944D000F931895D8
:00000001FF
