:100000000C94E1000C94E1000C94E1000C94E100EC
:100010000C94E1000C94E1000C94E1000C94E100DC
:100020000C94E1000C94E1000C94E1000C94E100CC
:100030000C94E1000C94E1000C94E1000C94E100BC
:100040000C94E1000C94E1000C94E1000C94E100AC
:100050000C94E10004E00EBF0FE50DBFD09AD89AD2
:100060008C9A8D9A8E9A8F9A979A0FEF04BB089567
:10007000FFCF0197F1F70000000000000895979A64
:100080009F938F9390E087E30E9439008F919F9117
:1000900097989F938F939BE083EB0E9439008F91F9
:1000A0009F91979A9F938F939BE083EB0E943900D7
:1000B0008F919F910895969895989F938F9390E034
:1000C00081E00E9439008F919F91949A05BB9F9384
:1000D0008F9390E081E00E9439008F919F919498D6
:1000E0009F938F9390E081E90E9439008F919F91B7
:1000F0000895969A95989F938F9390E081E00E943F
:1001000039008F919F91949A05BB9F938F9390E0B4
:1001100081E00E9439008F919F9194989F938F93D3
:1001200090E081E90E9439008F919F9108959F93FB
:100130008F939AEE8BE50E9439008F919F919F9348
:100140008F939AEE8BE50E9439008F919F910E94C8
:100150003F0000E30E945B009F938F9391E083E652
:100160000E9439008F919F9100E30E945B009F9352
:100170008F9390E081E90E9439008F919F910CE06C
:100180000E945B009F938F9391E083E60E94390069
:100190008F919F9101E00E945B009F938F939AEE55
:1001A0008BE50E9439008F919F9106E00E945B00D1
:1001B0009F938F939AEE8BE50E9439008F919F91C8
:1001C00008950E942A000E94970010E4012F0E94C7
:0A01D00079001A95D9F70E94380053
:00000001FF
