:100000000C94EC000C9409010C9409010C94090166
:100010000C9409010C9409010C9409010C94090138
:100020000C9409010C9409010C9409010C94090128
:100030000C9409010C9409010C9409010C94090118
:100040000C9409010C9409010C9409010C94090108
:100050000C9409014572726F720A00204672656540
:10006000204D656D6F72793A2000546F74616C2079
:100070004D656D6F72793A20004572726F7220691A
:100080006E2067657474696E6720636C7573746540
:100090007200456E64206F6620436C7573746572E0
:1000A00020436861696E002046696C652043726573
:1000B0006174656421002046696C6520617070651B
:1000C0006E6465642100204E6F2066726565206352
:1000D0006C7573746572210020456E7465722074AE
:1000E0006578742028656E642077697468207E299D
:1000F0003A00204E6F206672656520636C757374DC
:1001000065722100204372656174696E67204669DB
:100110006C652E2E00202046696C6520616C72652E
:10012000616479206578697374696E672C206170E9
:1001300070656E64696E6720646174612E2E00497B
:100140006E76616C69642066696C654E616D652EC2
:100150002E004572726F7220696E20676574746933
:100160006E6720636C7573746572004572726F728E
:1001700020696E2067657474696E6720636C75739F
:1001800074657200524F4F540044495200202020A1
:100190000046494C45002020200046696C652064DB
:1001A000656C65746564210044656C6574696E678F
:1001B0002E2E0046696C6520646F6573206E6F7427
:1001C0002065786973742100534420696E69742036
:1001D0006661696C2E2E000011241FBECFE5D4E0AD
:1001E000DEBFCDBF10E0A0E6B0E0ECE4FCE102C071
:1001F00005900D92AE37B107D9F712E0AEE7B0E047
:1002000001C01D92AD3AB107E1F70E94B10D0C9407
:10021000240E0C94000082E58DB91EB808958FB9A4
:10022000779BFECF8FB108958FEF8FB9779BFECF6D
:100230008FB108950F931F93DF93CF9300D000D019
:10024000CDB7DEB7C19880644C835B836A837983C2
:100250000E940F017981872F0E940F016A81862FEA
:100260000E940F015B81852F0E940F014C81842F1A
:100270000E940F0185E90E940F0110E002C0115099
:1002800029F00E941401082F8F3FC9F30E94140126
:10029000C19A802F0F900F900F900F90CF91DF9108
:1002A0001F910F910895AF92BF92CF92DF92EF927C
:1002B000FF920F931F937B018C0159016A01AB01DF
:1002C000BC0199E0440F551F661F771F9A95D1F71F
:1002D00080E20E941A018823E1F4B801A70141508D
:1002E0005040604070404A0D5B1D6C1D7D1D89E0D3
:1002F000440F551F661F771F8A95D1F781E20E9430
:100300001A01882331F486E240E050E0BA010E94ED
:100310001A011F910F91FF90EF90DF90CF90BF9047
:10032000AF9008951F93CF93DF93AB01BC0129E0F9
:10033000440F551F661F771F2A95D1F781E10E9450
:100340001A01182F882319F5C198CFEFDFEF06C0E7
:10035000209719F4C19A11E01AC021970E94140144
:100360008E3FB1F7939AC0E0D0E00E941401FE01E5
:10037000E856FF4F8083219682E0C030D807A9F766
:100380000E9414010E9414010E941401C19A812F3D
:10039000DF91CF911F9108951F93CF93DF93AB010E
:1003A000BC0139E0440F551F661F771F3A95D1F7FE
:1003B00088E10E941A01182F882309F03FC0C198D4
:1003C0008EEF0E940F01C0E0D0E0FE01E856FF4F23
:1003D00080810E940F01219682E0C030D807A9F7E2
:1003E0008FEF0E940F018FEF0E940F010E941401F6
:1003F000982F9F71953019F4C0E0D0E008C0C19AE1
:10040000182F1CC08FEFCF3FD80779F021960E949C
:1004100014018823B9F3C19A8FEF0E940F01C1988C
:1004200008C08FEFCF3FD80719F4C19A11E006C07A
:1004300021960E9414018823A1F3C19A812FDF9194
:10044000CF911F9108955F9BFECF8BB18CB1089522
:100450005D9BFECF8CB90895CF93DF93EC0105C06F
:100460002196FC0184910E942802CE01FE01249174
:100470002223B1F7DF91CF9108950F931F93C19875
:1004800010E000E08FEF0E940F010F5F0A30D1F7FC
:1004900080E040E050E0BA010E941A011F5F1F3F58
:1004A00029F488EC91E00E942C0229C0813049F7A0
:1004B000C19A8FEF0E940F018FEF0E940F011FEF73
:1004C00081E040E050E0BA010E941A0181E040E082
:1004D00050E0BA010E941A01115089F0882381F777
:1004E0008BE340E050E0BA010E941A0180E140E055
:1004F00052E060E070E00E941A0180E001C081E0FB
:100500001F910F910895EF92FF92CF93DF93E82E02
:10051000E7017E01F92EE70102C00E9428028991BD
:100520008823D9F7DF91CF91FF90EF900895DF9363
:10053000CF93CDB7DEB72B970FB6F894DEBF0FBEC3
:10054000CDBFDE011196E0E6F0E09BE001900D9258
:100550009150E1F7813021F0823021F0E2E003C0D8
:10056000E4E001C0E8E0CE010296F42FFF702E2FE8
:1005700030E0FA3020F4280F391FF05D03C0280F57
:10058000391FF95CD901FC93E15041F0F4E0769514
:10059000679557954795FA95D1F7E7CFCE01019624
:1005A0000E9483022B960FB6F894DEBF0FBECDBF1C
:1005B000CF91DF910895EF92FF920F931F932091B7
:1005C000980230919902E0908200F09083000091AF
:1005D000840010918500625070408040904040E05F
:1005E00050E00E94E30D9B01AC012E0D3F1D401F0A
:1005F000511FB901CA011F910F91FF90EF9008950B
:100600005F926F927F928F929F92AF92BF92CF92A2
:10061000DF92EF92FF920F931F93CF93DF935B01D3
:100620006C01542E38014901E090A202F090A3021F
:10063000B2E0AA0CBB1CCC1CDD1CBA95D1F72091F2
:100640008A0030918B0000E010E080919A02909136
:100650009B02A0919C02B0919D02E80EF91E0A1F18
:100660001B1F40E050E0C601B5010E94020EE20EE1
:10067000F31E041F151F20918A0030918B0040E06B
:1006800050E0C601B5010E94020EEB01AAE0AA2EBD
:10069000C801B7010E949201882311F0AA94C1F702
:1006A000C856DF4F552031F4288139814A815B815A
:1006B0005F700BC0688279828A829B82C801B70111
:1006C0000E94CC0120E030E0A901B901CA01DF910C
:1006D000CF911F910F91FF90EF90DF90CF90BF903F
:1006E000AF909F908F907F906F905F900895CF9282
:1006F000DF92EF92FF920F931F93D82EC62E7901AF
:100700008A0160919A0270919B0280919C02909163
:100710009D026F5F7F4F8F4F9F4F0E94920180918C
:10072000980090919900A0919A00B0919B00823519
:1007300022E5920721E6A20721E4B20709F05AC098
:1007400080917C0290917D02A0917E02B0917F0207
:10075000823722E7920721E4A20721E6B20709F0D7
:1007600049C08091940290919502A0919602B09117
:100770009702803020E0920725E5A2072AEAB20717
:10078000C9F5CC20A9F48D2D813049F42091800247
:100790003091810240918202509183022FC02091BA
:1007A000840230918502409186025091870226C0D2
:1007B0002D2D213049F4E0928002F09281020093C5
:1007C00082021093830208C0E0928402F0928502B4
:1007D000009386021093870260919A0270919B02A7
:1007E00080919C0290919D026F5F7F4F8F4F9F4F32
:1007F0000E94CC012FEF3FEF4FEF5FEFB901CA012D
:100800001F910F91FF90EF90DF90CF900895CF92BE
:10081000DF92EF92FF920F931F93CF93DF9310928B
:100820009A0210929B0210929C0210929D0260E02C
:1008300070E0CB010E94920180919800893E21F1E5
:100840008B3E11F180919602909197022AEA8535AC
:10085000920709F0B1C060915E0270915F028091D1
:1008600060029091610260939A0270939B02809360
:100870009C0290939D020E94920180919800893E73
:1008800019F08B3E09F098C08091A3009091A400CC
:1008900090938B0080938A008091A50090E09093C4
:1008A000990280939802C090A600D090A700D092A1
:1008B000A302C092A2028091C4009091C500A091B1
:1008C000C600B091C7008093900090939100A093D0
:1008D0009200B0939300C091A202D091A3026091C4
:1008E000A80070E080E090E02091BC003091BD0055
:1008F0004091BE005091BF000E94E30D8B019C010E
:10090000CE01A0E0B0E04091B4005091B5006091FC
:10091000B6007091B700840F951FA61FB71F800FF8
:10092000911FA21FB31F8093820090938300A09316
:100930008400B09385004091980250919902EE2472
:10094000FF246091B8007091B9008091BA00909135
:10095000BB006C197D098E099F09601B710B820B0E
:10096000930B9A0140E050E00E94020E20938C000D
:1009700030938D0040938E0050938F0081E060E0B3
:1009800020E030E0A9010E9477039B01AC01809137
:100990008C0090918D00A0918E00B0918F008217F5
:1009A0009307A407B50718F41092A80203C081E0CA
:1009B0008093A80280E001C081E0DF91CF911F9178
:1009C0000F91FF90EF90DF90CF900895EF92FF92FC
:1009D0000F931F93DF93CF93CDB7DEB72B970FB64F
:1009E000F894DEBF0FBECDBF9C01FC0110E0419129
:1009F0004E3221F01F5F1C30D1F70AC0193040F48D
:100A0000FE013196BF01610F711D7F01AC010CC069
:100A10008FE391E00E942C0281E047C0DA010D9142
:100A2000AD01D7010D937D01E616F706B9F7612FE9
:100A3000AE014F5F5F4F70E205C0DA01A60FB11D36
:100A40007C936F5F6830C9F71F5FAE014F5F5F4FE8
:100A500000E2DC01A10FB11D7C91772359F0DA018E
:100A6000A60FB11D7C931F5F07C0DA01A60FB11D51
:100A70000C936F5F6B30C8F36F5F6B3050F3CF0137
:100A80000B96DF014C91542F51565A3110F44052BD
:100A90004C931196A817B907A9F74191D9014D9325
:100AA0009D01E817F907C9F780E02B960FB6F89477
:100AB000DEBF0FBECDBFCF91DF911F910F91FF9091
:100AC000EF9008956F927F928F929F92AF92BF9214
:100AD000CF92DF92EF92FF920F931F9360783B01CA
:100AE0004C0102E0660C771C881C991C0A95D1F712
:100AF0005B016C014EC0E090A202F090A302209135
:100B00008A0030918B0000E010E080919A02909171
:100B10009B02A0919C02B0919D02E80EF91E0A1F53
:100B20001B1F40E050E0C401B3010E94020EE20E20
:100B3000F31E041F151FC801B7010E94920120E097
:100B4000E22FF0E0EE0FFF1FEE0FFF1FE856FF4F02
:100B500080819181A281B381BF700097A105B10509
:100B600029F4A20EB11CC11CD11C24C02F5F203857
:100B700039F780E890E0A0E0B0E0A80EB91ECA1EE8
:100B8000DB1E80E092E0A0E0B0E0680E791E8A1ED5
:100B90009B1E80918C0090918D00A0918E00B09151
:100BA0008F00A816B906CA06DB0608F4A4CFAA244B
:100BB000BB246501B501C6011F910F91FF90EF9015
:100BC000DF90CF90BF90AF909F908F907F906F906D
:100BD0000895AF92BF92CF92DF92EF92FF920F9360
:100BE0001F93DF93CF93CDB7DEB763970FB6F8941B
:100BF000DEBF0FBECDBFDE011196EBE6F0E023E1D4
:100C000001900D922150E1F71CE00CE22AE0C22E87
:100C1000D12CE12CF12C153011F0193029F4FE0102
:100C2000E10FF11D008311505E01A10EB11CA7015F
:100C300096010E94020E6063F5016083B901CA014A
:100C4000611571058105910511F0115021F7CE0153
:100C500001960E94830263960FB6F894DEBF0FBE22
:100C6000CDBFCF91DF911F910F91FF90EF90DF905B
:100C7000CF90BF90AF9008952F923F924F925F9286
:100C80006F927F928F929F92AF92BF92CF92DF929C
:100C9000EF92FF920F931F9360908C0070908D00E5
:100CA00080908E0090908F00A0909802B090990252
:100CB000E0908A00F0908B008DE00E9428028AE08C
:100CC0000E9428028DE00E9428028AE00E942802E9
:100CD0008AE690E00E942C02B50180E090E0970146
:100CE00040E050E00E94E30DA40193010E94E30D57
:100CF0000E94E90581E060E020E030E0A9010E9467
:100D000077035B016C0180918C0090918D00A09124
:100D10008E00B0918F008A159B05AC05BD0508F0CB
:100D20006AC01092A802609090007090910080902C
:100D300092009090930032E0660C771C881C991CFE
:100D40003A95D1F7222433242101AA24BB2465013A
:100D5000E090A202F090A30220918A0030918B00D3
:100D600000E010E080919A0290919B02A0919C0279
:100D7000B0919D02E80EF91E0A1F1B1F40E050E0D3
:100D8000C401B3010E94020EE20EF31E041F151FE0
:100D9000C801B7010E94920120E030E0F901E85655
:100DA000FF4F80819181A281B381BF700097A1051F
:100DB000B10529F40894A11CB11CC11CD11C0894D4
:100DC000211C311C411C511C80918C0090918D0084
:100DD000A0918E00B0918F000296A11DB11D281622
:100DE00039064A065B0639F02C5F3F4F82E020301F
:100DF0003807A1F644C08091A802882331F481E02D
:100E000061E0A60195010E94770381E08093A8022A
:100E10006090980270909902E0908A00F0908B00A8
:100E20008DE00E9428028AE00E9428028BE590E073
:100E30000E942C02B70180E090E0930140E050E076
:100E40000E94E30DA60195010E94E30D0E94E905B1
:100E50008DE00E9428028AE00E9428021F910F91D3
:100E6000FF90EF90DF90CF90BF90AF909F908F90CA
:100E70007F906F905F904F903F902F90089580E00B
:100E800092E0A0E0B0E0680E791E8A1E9B1E60CF43
:100E9000DF92EF92FF920F931F93D82EDB01CA01CE
:100EA0009170A070B070E9E0769567955795479579
:100EB000EA95D1F70097A105B10521F04F5F5F4F8B
:100EC0006F4F7F4FDB01CA0187709070A070B070C8
:100ED0007A018B0143E016950795F794E7944A95BC
:100EE000D1F70097A105B10529F00894E11CF11C88
:100EF000011D111D8091A8028823C1F081E060E0EE
:100F000020E030E0A9010E9477039B01AC01DD20C5
:100F100029F42E0D3F1D401F511F04C02E193F09FB
:100F2000400B510B81E061E00E9477031F910F910C
:100F3000FF90EF90DF9008952F923F924F925F9233
:100F40006F927F928F929F92AF92BF92CF92DF92D9
:100F5000EF92FF920F931F93DF93CF93CDB7DEB73E
:100F60002B970FB6F894DEBF0FBECDBF382E6D8322
:100F70007E83C0909000D0909100E0909200F0901D
:100F80009300282F21502F83C701B6010E94DB0256
:100F900069837A838B839C8388249924540146C176
:100FA00049805A806B807C80480C591C6A1C7B1CD1
:100FB000C301B2010E94920100E210E027C1B80112
:100FC00068587F4FC80188569F4FFC01B0974081F9
:100FD000442341F4832D8150823008F04FC183EBCC
:100FE00091E04AC1453E09F40FC14597DC018C915F
:100FF0008F3009F409C1BF81B23008F0BBC0FB01DA
:101000005D814E81852F942FDC0180E041919D917F
:10101000491709F0F9C08F5F8B30C1F78B01E32DC1
:10102000E130D1F54092A9025092AA026092AB023F
:101030007092AC0240E050E020937E0030937F003D
:101040004093800050938100DB0154968D919C91D8
:101050005597A0E0B0E0DC0199278827FB01228D9D
:10106000338D40E050E0822B932BA42BB52B809343
:10107000A4029093A502A093A602B093A702848D28
:10108000958DA68DB78D8093860090938700A09351
:101090008800B0938900F4C08DE00E9428028AE0A5
:1010A0000E94280288EA91E00E942C028DE00E94B2
:1010B00028028AE00E9428028DE00E9428028AE02D
:1010C0000E942802D80154968D909C905597AA248E
:1010D000BB245401992488245A968D919C915B9746
:1010E000A0E0B0E0882A992AAA2ABB2A85EEF80156
:1010F0008083C301B2010E94CC01D8015C964D915E
:101100005D916D917C915F9780E00E94480782E03D
:1011100060E020E030E0A9010E9477038616970680
:10112000A806B90648F482E061E0A50194010E9496
:10113000770302C046015701C501B40140E000E059
:1011400010E098010E9400036B017C01C501B4010D
:1011500041E000E010E098010E940003B7EFCB16D9
:10116000BFEFDB06BFEFEB06BFE0FB0618F38AE933
:1011700091E082C08DE06A877B870E9428028AE026
:101180000E9428026A857B8522247987688706C0A9
:10119000E22DE83019F480E20E942802A885B98582
:1011A0008D91B987A8870E9428022394B22DBB3065
:1011B00079F786E991E00E942C02980128563F4F6A
:1011C000F901759780818031C1F08830C9F081E9DB
:1011D00091E02A873B870E942C028DE891E00E94D3
:1011E0002C022A853B8524503040F90160817181B1
:1011F000828193810E94E90507C089E891E002C0DD
:1012000084E891E00E942C02005E1F4F980120525A
:10121000304080918A0090918B002817390708F49C
:10122000CECE0894811C911CA11CB11C8091980207
:1012300090919902A0E0B0E088169906AA06BB0634
:1012400008F4AECEC701B60140E000E010E098011E
:101250000E9400036B017C01673FFFEF7F07FFEFF8
:101260008F07FFE09F0750F4611571058105910517
:1012700009F08ACE8BE691E00E942C0200E010E09B
:10128000C8012B960FB6F894DEBF0FBECDBFCF912D
:10129000DF911F910F91FF90EF90DF90CF90BF9063
:1012A000AF909F908F907F906F905F904F903F9006
:1012B0002F900895CF93DF93EC010E94E6048823DA
:1012C00021F482E0BE010E949C07DF91CF91089536
:1012D0002F923F924F925F926F927F929F92AF9226
:1012E000BF92CF92DF92EF92FF920F931F93DF9303
:1012F000CF9300D000D0CDB7DEB7182F7B01CB0144
:101300000E94E604882309F084C081E0B7010E94AE
:101310009C07009709F481C0113009F47CC0DC01FE
:101320005496ED90FC90559700E010E08701FF2463
:10133000EE245A962D913C915B9740E050E0E22AD2
:10134000F32A042B152B5C968D919D910D90BC91E9
:10135000A02D89839A83AB83BC838DE00E942802F1
:101360008AE00E9428028DE00E9428028AE00E9402
:101370002802AA24BB246501C801B7010E94DB0230
:101380002B013C01992427C0C301B201690D711DD5
:10139000811D911D0E94920122243324F101E856FF
:1013A000FF4F80810E94280289819A81AB81BC8194
:1013B000A816B906CA06DB0680F50894A11CB11C64
:1013C000C11CD11C0894211C311C90E0291692E00C
:1013D000390621F793948091980290919902292DD2
:1013E00030E02817390780F2C801B70140E000E07B
:1013F00010E098010E9400037B018C0161157105CA
:101400008105910509F0B8CF82E591E00E942C0298
:1014100004C082E003C081E001C080E00F900F9023
:101420000F900F90CF91DF911F910F91FF90EF9050
:10143000DF90CF90BF90AF909F907F906F905F9024
:101440004F903F902F9008952F923F924F925F922E
:101450006F927F928F929F92AF92BF92CF92DF92C4
:10146000EF92FF920F931F93DF93CF93CDB7DEB729
:101470002C970FB6F894DEBF0FBECDBF9A83898339
:1014800081E069817A810E946809813009F07FC01A
:1014900085E191E00E942C028090A4029090A50228
:1014A000A090A602B090A702CC24DD247601C5014D
:1014B000B40140E000E010E098010E9400036F3F9B
:1014C0002FEF72072FEF82072FE0920741F0089469
:1014D000C11CD11CE11CF11C4B015C01E8CF209127
:1014E00098023091990260918A0070918B0000916E
:1014F0008A0010918B0080E090E040E050E00E9474
:10150000E30DA70196010E94E30D9B01AC016091E0
:101510008600709187008091880090918900621BFD
:10152000730B840B950B980140E050E00E94020E73
:10153000122F66246394C501B4010E94DB02610F7F
:10154000711D811D911D609394007093950080938F
:10155000960090939700609194007091950080910F
:101560009600909197000E94920120918A003091FC
:101570008B0040E050E06091860070918700809180
:101580008800909189000E94020E6B015EC082303B
:1015900009F4AEC28DE00E9428028AE00E9428026F
:1015A00084E091E00E942C0282E060E020E030E0E4
:1015B000A9010E94770320918C0030918D00409109
:1015C0008E0050918F00261737074807590740F4BF
:1015D00060919000709191008091920090919300A1
:1015E0000E9462054B015C01611571058105910541
:1015F00049F48DE00E9428028AE00E94280282EFCE
:1016000090E074C241E00FEF1FEF2FEF3FE00E9428
:101610000003BE82AD829C828B8210928600109263
:10162000870010928800109289006624C501B401D9
:101630000E94DB0260939400709395008093960063
:1016400090939700CC24DD2410E08DE00E942802C6
:101650008AE00E94280288ED90E00E942C020E94FD
:101660002302082F883019F5C114D104C1F388E092
:101670000E94280280E20E94280288E00E9428023C
:101680000894C108D1088091860090918700A091AC
:101690008800B09189000197A109B1098093860063
:1016A00090938700A0938800B0938900D8CF0E94C0
:1016B0002802F601E856FF4F00830894C11CD11C94
:1016C0008091860090918700A0918800B091890058
:1016D0000196A11DB11D8093860090938700A09371
:1016E0008800B09389000D30F1F48AE00E9428024E
:1016F000F601E856FF4F8AE080830894C11CD11C94
:101700008091860090918700A0918800B091890017
:101710000196A11DB11D8093860090938700A09330
:101720008800B093890040E0C41642E0D40649F531
:10173000609194007091950080919600909197002F
:101740000E94CC011F5F8091980290919902212FF5
:1017500030E028173907C9F08091940090919500E6
:10176000A0919600B09197000196A11DB11D8093A4
:10177000940090939500A0939600B0939700CC248A
:10178000DD240E3709F06BCF04C00E37B9F5CC2439
:10179000DD248091860090918700A0918800B0910F
:1017A00089000197A109B109809386009093870071
:1017B000A0938800B093890096012150304006C064
:1017C000F901E856FF4F10822F5F3F4F52E0203063
:1017D0003507B0F360919400709195008091960068
:1017E000909197000E94CC0182E061E0A5019401F4
:1017F0000E947703662009F46EC027C0C501B401BA
:101800000E9462056B017C016115710581059105DE
:1018100049F48DE00E9428028AE00E94280286ECAA
:1018200090E064C1C501B40141E0970186010E94C6
:101830000003C701B60141E00FEF1FEF2FEF3FE0BC
:101840000E94000346015701F1CE6091A9027091F8
:10185000AA028091AB029091AC020E949201E091A9
:101860007E00F0917F00E856FF4F809186009091B6
:101870008700A0918800B0918900248D358D468D18
:10188000578D6C017D01C21AD30AE40AF50A848FD0
:10189000958FA68FB78F6091A9027091AA0280914F
:1018A000AB029091AC020E94CC0181E0B701A6018D
:1018B0000E9448078DE00E9428028AE00E942802C8
:1018C00086EB90E00E942C028DE00E9428028AE0C4
:1018D0000E9428020DC18090900090909100A090ED
:1018E0009200B0909300552460E2462E54E8252ED5
:1018F00056E9352E47E3642E4AE3742E02C04601B2
:101900005701C501B4010E94DB026F837887898784
:101910009A8710E0A3C0CF80D884E984FA84C10EEE
:10192000D11CE11CF11CC701B6010E94920180E2AA
:1019300090E085C0EB85FC85E858FF4F552011F0FD
:101940001082D6C0AB85BC85A858BF4F8C91882328
:1019500019F0853E09F070C020E0622F70E0CF01E1
:10196000860F971FA981BA816A0F7B1FDB013C910B
:10197000DC013C932F5F2B3081F7EB85FC85E8562B
:10198000FF4FDF0155974C92DF0154971C92DF0106
:1019900053971C92DF0152972D923C92DF01509792
:1019A0006D927C92DF011E976D927C92DF011A97F7
:1019B0002D923C92DF0118976D927C929F012C50E2
:1019C00030404D815E81D9014D935C939F0126503B
:1019D00030404B815C81D9014D935C933497809169
:1019E000860090918700A0918800B0918900808343
:1019F0009183A283B383C701B6010E94CC018DE01D
:101A00000E9428028AE00E9428028DE00E9428029B
:101A10008AE00E94280287EA90E00E942C0240910E
:101A2000860050918700609188007091890081E064
:101A30000E944807552453948B859C8580969C87EB
:101A40008B8780918A0090918B002B853C8520525A
:101A500030402817390708F46DCF1F5F8091980236
:101A600090919902212F30E02817390708F453CFBD
:101A7000C501B40140E000E010E098010E940003BD
:101A80006B017C0197EFC9169FEFD9069FEFE9061E
:101A90009FE0F90618F1AFEFCA16AFEFDA06AFEF25
:101AA000EA06AFE0FA06B9F4C501B4010E94620586
:101AB0006B017C01C501B40141E0970186010E94E0
:101AC0000003C701B60141E00FEF1FEF2FEF3FE02A
:101AD0000E94000303C082E990E008C0C114D10451
:101AE000E104F10409F00BCF89E790E00E942C0299
:101AF0002C960FB6F894DEBF0FBECDBFCF91DF910D
:101B00001F910F91FF90EF90DF90CF90BF90AF901B
:101B10009F908F907F906F905F904F903F902F900D
:101B200008951BBA1ABA8FEE88BB8FEB87BB15BA24
:101B300014BA12BA8EEF81BB089510BC82E089B945
:101B400096E890BD98E19AB98BB90895F8940E94EF
:101B5000910D0E940B010E949D0D15BE1BBE19BE6A
:101B60000895CF93DF938FE799EAA3E081509040E7
:101B7000A040E1F700C000000E94A60D929A0E94CA
:101B80003D0280E58DB9709AA7EBBBE01197F1F7A4
:101B900000C0000060E070E0CB010E949201882349
:101BA00021F084E590E00E942C02C0E0D0E0FE012C
:101BB000E856FF4F80810E9428022196B2E0C03093
:101BC000DB07A9F7FFCF629FD001739FF001829FCF
:101BD000E00DF11D649FE00DF11D929FF00D839FBC
:101BE000F00D749FF00D659FF00D9927729FB00D59
:101BF000E11DF91F639FB00DE11DF91FBD01CF016C
:101C000011240895A1E21A2EAA1BBB1BFD010DC0D1
:101C1000AA1FBB1FEE1FFF1FA217B307E407F5079C
:101C200020F0A21BB30BE40BF50B661F771F881F78
:101C3000991F1A9469F760957095809590959B010E
:0C1C4000AC01BD01CF010895F894FFCF66
:101C4C003078202020202020202000202020202040
:0E1C5C00202020202020202042797465730073
:00000001FF
