:1000000012C017C016C015C014C013C012C011C052
:1000100010C00FC00EC00DC00CC00BC00AC009C07C
:1000200008C007C006C011241FBECFEDCDBF02D04F
:100030007DC0E6CF82B3817D82BB81B38E6281BBFE
:1000400018BA17BAD198D99A80E090E040E052E00F
:1000500061E074E0E8E057BB58BBAFE1BEE4119744
:10006000F1F700C00000B59B02C0416001C04E7FA7
:1000700018BAAFE1BEE41197F1F700C0000067BB0A
:1000800068BBAFE1BEE41197F1F700C00000B49B7C
:1000900002C0426001C04D7F18BAAFE1BEE41197C3
:1000A000F1F700C0000077BB78BBAFE1BEE4119769
:1000B000F1F700C00000B69B02C0446001C04B7F56
:1000C00018BAAFE1BEE41197F1F700C00000E7BB3A
:1000D000E8BBAFE1BEE41197F1F700C00000B79BA9
:1000E00002C0486001C0477F18BAAFE1BEE4119773
:1000F000F1F700C00000C99B05C04F3019F020E0A7
:1001000030E006C09C012F5F3F4F0B9718F44FE083
:10011000C901A1CF959ABFEF29E688E1B1502040EF
:100120008040E1F700C00000919AFFCFF894FFCF24
:00000001FF
