:1000000012C02AC029C028C027C026C025C024C0CD
:1000100023C022C021C0ACC01FC01EC01DC01CC058
:100020001BC01AC019C011241FBECFEDCDBF10E0F8
:10003000A0E6B0E0E8EAF2E002C005900D92A43636
:10004000B107D9F720E0A4E6B0E001C01D92A836C0
:10005000B207E1F716D126C1D3CF96E922B380913A
:1000600066008072822782BBEFECF7E03197F1F7F0
:1000700000C00000915091F7089580E280936600DF
:10008000ECDF10926600089580E280936600E5DF61
:10009000E4DFE3DF109266000895DFCFDEDFDDDF0F
:1000A000DCCFDBDFDADFD9DFD8DFD7DFD6DFD5CFB4
:1000B000EBDFD3DFE9DFD1DFE7DFCFDFE5DFCDDF68
:1000C000E3CFDBDFCADFE0DFC8DFDEDFC6DFDCDF98
:1000D000C4DFDACFD2DFC1DFD0DFBFDFD5DFBDDFE6
:1000E000D3DFBBDFD1CFC9DFB8DFC7DFB6DFC5DF06
:1000F000B4DFCADFB2DFC8CFC0DFAFDFBEDFADDF46
:10010000BCDFABDFBADFA9DFBFCFB7DFA6DFB5DF6C
:10011000A4DFB3DFA2DFB1DFA0DFAFCFB5DF9DDFAC
:10012000ACDF9BDFAADF99DFA8DF97DFA6CFACDFCC
:1001300094DFAADF92DFA1DF90DF9FDF8EDF9DCF0C
:10014000A3DF8BDFA1DF89DF9FDF87DF96DF85DF1E
:1001500094CF9ADF82DF98DF80DF96DF7EDF94DF47
:100160007CDF8BCFC9DF9ADFE2DF98DFB3DF99CF87
:100170001F920F920FB60F9211242F933F934F931C
:100180005F936F937F938F939F93AF93BF93EF93FF
:10019000FF9386B32FEF34E39CE021503040904032
:1001A000E1F700C000009AB790629ABF8F3F09F450
:1001B00057C080FF0EC0982F9670963051F4982F3C
:1001C0009871983131F4982F9076903611F487FD1C
:1001D00035C090916700911109C092B3977E92BB90
:1001E00090916200891326C081E007C0913069F4C4
:1001F00090916100891304C082E08093670030C051
:1002000090916200891316C02BC09230C9F490916E
:100210006000891307C081E0809365001092670039
:10022000949A0EC090916200891304C081E080937B
:10023000670006C010926700939A12C01092670080
:1002400080916500882361F085E08093650080914E
:100250006500882329F086DF809165008150F5CF05
:10026000FF91EF91BF91AF919F918F917F916F918E
:100270005F914F913F912F910F900FBE0F901F9064
:10028000189582B3877C82BB81B3886381BB8FEF73
:1002900088BB17BA80BD8BB780628BBF8FB7806871
:0802A0008FBFFFCFF894FFCFE0
:0402A800EFFDBF00A7
:00000001FF
