:100000000C942A000C943F000C943F000C943F0089
:100010000C943F000C943F000C943F000C943F0064
:100020000C943F000C943F000C943F000C943F0054
:100030000C943F000C943F000C943F000C943F0044
:100040000C943F000C943F000C943F000C943F0034
:100050000C943F0011241FBECFE5D4E0DEBFCDBF1E
:1000600010E0A0E6B0E0E4E5F3E002C005900D92F8
:10007000A23FB107D9F70E94BF000C94A8010C94CD
:10008000000086E880BD88E18AB982E08BB910BCA7
:1000900089B908955D9BFECF8CB908955F9BFECF13
:1000A0008CB108950F931F93CF93DF93082F192FCF
:1000B000C0E0D0E007C00E944A00219684E0C03032
:1000C000D80729F0F80181918F018823A1F7DF91EA
:1000D000CF911F910F910895FF920F931F93DF937C
:1000E000CF93CDB7DEB760970FB6F894DEBF0FBEE3
:1000F000CDBFF82EDE011196E1EEF0E080E1019037
:100100000D928150E1F78F2D82958F708E010F5FD8
:100110001F4FF801E80FF11D80810E944A008F2DCA
:100120008F70F801E80FF11D80810E944A0080E283
:100130000E944A0060960FB6F894DEBF0FBECDBF96
:10014000CF91DF911F910F91FF90089580EB87BBB6
:1001500081E08EB982E58DB9089581E08EB981E59F
:100160008DB9089581E08EB982E58DB908958FB972
:10017000779BFECF8FB10E946C008FB108951F93C3
:1001800080E781BB82B382BB83E087BBC09A0E94B9
:10019000A6000E94410080E690E00E945200C098B4
:1001A00080E00E94B7008FEF0E94B700182FC09A1E
:1001B00084E08A95F1F7C09880E20E94B700812F11
:1001C00082600E94B700C09A94E09A95F1F7C098B7
:1001D00080E00E94B7008FEF0E94B700C09A84E0D1
:1001E0008A95F1F787E293E20197F1F700C00000EA
:1001F0008DE690E00E945200C09880E00E94B70017
:100200008FEF0E94B700182FC09A94E09A95F1F7EB
:10021000C09880E20E94B700812F81600E94B700E1
:10022000C09A84E08A95F1F7C09880E00E94B700F8
:100230008FEF0E94B700C09A94E09A95F1F78BE790
:1002400090E00E945200C09881E30E94B70081E0D4
:100250000E94B700C09A84E08A95F1F794E09A95DD
:10026000F1F7C09881E10E94B7008FEF0E94B700BC
:10027000C09A84E08A95F1F7C19A8FE295E70197D9
:10028000F1F700C00000B299FECF94E09A95F1F723
:10029000C198C09881E60E94B7008FEF0E94B70016
:1002A000C09A94E09A95F1F7882319F482B38F7875
:1002B00014C0813021F4949A82B38F790EC08230B9
:1002C00021F4959A82B38F7A08C0833021F4969AEC
:1002D00082B38F7C02C082B3806782BB8AE890E0E1
:1002E0000E945200C0988FEF0E94B700182FC09A4A
:1002F00084E08A95F1F714FF0BC08CE990E00E942E
:100300005200C09887E20E94B700812F806119C017
:1003100015FF0BC08EEB90E00E945200C09887E260
:100320000E94B700812F8062A1CF16FFA5CF81ED7B
:1003300090E00E945200C09887E20E94B700812F8F
:1003400080640E94B700C09A94E09A95F1F794CF28
:04035000F894FFCF4F
:100354000A5057525F5550203D20310A000A50522E
:10036400494D5F5258203D20310A000A52585F50CF
:10037400575F5030203D20310A000A537461747570
:10038400732072656769737465720A000A4D617837
:10039400696D756D2072657472616E736D697373C6
:1003A400696F6E7320726561636865640A000A444C
:1003B400617461207472616E736D69747465640A2A
:1003C400000A446174612072656365697665640A34
:1003D400003031323334353637383961626364651D
:0203E4006600B1
:00000001FF
